S0110000424C455F504E4443532E7372656369
S113000078420020C51C0000C11C0000C11C000077
S113001000000000000000000000000000000000DC
S1130020000000000000000000000000C11C0000EF
S11300300000000000000000C11C0000C11C000002
S1130040C11C0000C11C0000C11C000071020000A2
S1130050C11C0000C11C0000C11C0000C11C000028
S1130060C9080000D9080000E9080000F9080000E8
S11300700909000019090000C11C0000C11C00008E
S1130080C11C0000E9180000F9180000091900005B
S11300901919000029190000C11C0000C11C00002E
S11300A0C11C0000C11C0000C11C0000C11C0000D8
S11300B00000000010B5064C2378002B07D1054B37
S11300C0002B02D0044800E000BF0123237010BDC0
S11300D0AC00002000000000B0D7000008B5084BB9
S11300E0002B03D00748084900E000BF0748036815
S11300F0002B00D108BD064B002BFBD09847F9E735
S113010000000000B0D70000B0000020B0D700000D
S11301100000000010B50020084B9847084CFA2155
S11301208900A047074B1860FA218900A047064BB5
S113013018600522054B1A6010BDC0462916000040
S113014019820000040000200000002010E000E0FC
S113015030B5084B1C68084A00258021490206E096
S1130160002C04D05460956013680B42FCD0013815
S1130170F6D230BD0400002010E000E00C4B1B68F8
S1130180002B10D1EFF31083002B09D172B6BFF30B
S11301905F8F0022074B1A700132074B1A7002E07E
S11301A00022054B1A70024A13680133136070472A
S11301B0C800002008000020CC000020084B1A686A
S11301C0013A1A601B68002B09D1064B1B78002BDF
S11301D005D00122044B1A70BFF35F8F62B67047DB
S11301E0C8000020CC00002008000020F0B583B037
S11301F001AC012565700027A77025702A20211CF9
S1130200064EB0478022D200054B9A612770657074
S11302100220211CB04703B0F0BDC0463D040000DD
S1130220802800401723002A0DD18B00074A9B58D1
S1130230002B03D189008850002304E0834201D0BD
S11302401D2300E00023181C7047C0460C0E00203C
S11302501723002907D100221F2800D8034A0123AD
S1130260834013610023181C7047C04600240040DB
S113027070B50022154B1A7000231F25144E134C21
S11302801F2B19D90FE0002100E012494A619B009D
S11302909B59002B00D0984723780133DBB223709D
S11302A00F2BEDD911E0291C194001228A400021AD
S11302B049691142E7D1EFE7291C194001228A401C
S11302C0044949691142E0D1E6E770BD080E0020F7
S11302D00C0E002000240040064A117802230B4330
S11302E013700221012053681942FCD1536818424B
S11302F0F9D1704700240040064A137802218B4349
S11303001370012053681942FCD153681842F9D183
S11303107047C0460024004000B583B0184A5369B2
S1130320802189000B43536101A900230B70032032
S1130330144B98470320144B9847144A117801230F
S11303400B4313700221012053681942FCD15368F6
S1130350184209D0F8E704C38B42FCD108220C4BA5
S11303601A600C4B984709E0084A137810218B4314
S11303701370094B191C40310022ECE703B000BD97
S113038000040040FD160000951600000024004003
S113039000E100E0D90200000C0E002000230360FD
S11303A043600122027283720132C2724372704747
S11303B0F0B583B0051C0C1C1C4B984701A9002305
S11303C04B70CB7023790B70237A8B702078184B89
S11303D0984700261F2D00D8164E07222A40920067
S11303E0E07AA37A002B01D008231843EB089B0082
S11303F0F318D96990400F279740B9430A1C024368
S1130400DA61637A002B06D0B3690122AA40151C75
S11304101D43B56106E0B3691B041B0C0122AA400D
S11304209343B361044B984703B0F0BDF902000055
S1130430F917000000240040D902000000B583B081
S113044001AB80221A700A785A704A789A708A78B6
S1130450DA70191C014B984703B000BDF91700006E
S113046010B54908402481420CD30023091A0133F2
S11304709BB28842FAD9013B9BB24024FF2B01D89E
S113048013800024201C10BDF0B55F4656464D462F
S11304904446F0B489B01C1C12AB1B78061C5E43A6
S11304A040258E4200D9C7E0251C07920C1C021C73
S11304B0002D51D1181C00210023634DA847834609
S11304C0261C002700230024029303940022002307
S11304D03F2020218C461F39009601972024644236
S11304E0041903D40D1CA540A84604E06446241A4C
S11304F00D1CE540A8460C1C8440A146141C1D1C80
S1130500A4185D41221C2B1C5E4647463E4203D084
S11305100E1C2643321C2B1C019C9C4210D802D179
S1130520009C94420CD8009C019D121BAB414D468B
S1130530029E039F35433C1C464634430295039474
S11305400138CBD20022012302980399121A8B415D
S1130550110C1B0419436CE00021012D69D1610FBA
S11305600F1CE1008846181C00210023364CA047CC
S1130570041C0D1C00239C4620339B460126634625
S11305800593B9466B461B7D069300239C460020C9
S113059000213F220094019520235B42D31803D409
S11305A0341C9C40231C04E05B469B1A341CDC4036
S11305B0231C371C9740041C0D1C24184D41201C7F
S11305C0291C0290039144463C40A2464C462340D9
S11305D05446234305D0029B039C1D1C3543281C11
S11305E0211C019B8B420AD802D1009B834206D86E
S11305F0009B019CC01AA14163463B439C46013ABF
S1130600CAD2009C019D62460599531ADB080F4A21
S1130610934208D9069A0132D2B206920A1C0132D8
S11306200592082AAED14025069A082A04D051031F
S11306301943079B19800025281C09B03CBC90462F
S11306409946A246AB46F0BD3D830000FF1F000063
S113065010B582B0041C0E4B1B78002B01D000296E
S11306600DD001A90C7011200A4B984711200A4B98
S11306709847074B5C7001221A70002006E0044B77
S11306805B78834201D01D2000E0002002B010BD41
S1130690D0000020FD16000095160000444B98423F
S11306A034D007D88423DB0598420DD0414B9842BF
S11306B01BD06FE0404B98424AD0404B984258D0F0
S11306C03F4B984266D132E0012906D0002963D01D
S11306D0022906D0032906D001E03A4867E0002049
S11306E065E0394863E0394861E0012906D0002912
S11306F054D0022906D0032906D001E0344856E03C
S1130700002054E0334852E0334850E0012906D039
S1130710002945D0022906D0032906D001E02F483C
S113072045E0002043E02E4841E02E483FE0012907
S113073006D0002936D0022906D0032906D001E0CC
S1130740294834E0002032E0284830E028482EE0F0
S1130750012906D0002927D0022906D0032906D072
S113076001E0244823E0002021E023481FE023483F
S11307701DE0012906D0002918D0022906D003293A
S113078006D001E01E4812E0002010E01D480EE0F3
S11307901D480CE000200AE01C4808E0032006E0A5
S11307A01B4804E01B4802E01B4800E01B4870475C
S11307B0000800420004004200100042000400430C
S11307C0000C0042030005000300060003000700BC
S11307D00300010003001E0003001F0003000900C2
S11307E003000A0003000B000300110003001200C1
S11307F00300130003000D0003000E0003000F00AC
S1130800030017000300180003001900030004008C
S1130810030008000300100003000C00030016008E
S113082030B587B00C4B6A4632CB32C232CB32C2BF
S1130830009B834206D001239A00694652588242A3
S113084003D100E00023D8B203E00133062BF3D137
S1130850002007B030BDC046409500007047C04638
S1130860F0B50A4B1B78002B0CD1094F094E0A4DE9
S11308700024DE515A1914600433182BF9D10122D3
S1130880024B1A708000024BC150F0BDD200002010
S1130890D40000205D0800004C0E002010B582B08A
S11308A0041C684605490622054B9847201C054B45
S11308B098476B46185602B010BDC04658950000C4
S11308C0FB8300002108000008B5024B1B680020D0
S11308D0984708BDD400002008B5024B5B6801208E
S11308E0984708BDD400002008B5024B9B6802203D
S11308F0984708BDD400002008B5024BDB680320EC
S1130900984708BDD400002008B5024B1B69042099
S1130910984708BDD400002008B5024B5B69052048
S1130920984708BDD4000020F0B55F4656464D46B2
S11309304446F0B491B0061C0C1C151C3160081C14
S1130940C24B9847021E052A03D0071C1237031C0A
S113095001E01827012321680520C90700D56EE1AD
S113096021681730890700D569E1052A06D1B849FD
S11309700A6A1B3898401043086205E0B449CA6902
S1130980012098401043C8610FA92D239846EB5CC1
S11309900B70FFB2381CAF4B9847381CAE4B9847CE
S11309A04346E85C0021AD4B9847EB7A73712423EE
S11309B0EB5CB3712523EB5CF371EB7E33722B7F1D
S11309C0737233689A46181CA04B98471230002261
S11309D00E2306A98C4663441A802B8A99468023E9
S11309E0DB01994519D004D880239B0199450AD08D
S11309F006E1C023DB0199450AD080231B029945F7
S1130A0000D102E1FCE0102398460F3B079300E17C
S1130A1008239846073B0793FBE02B689B46EB684B
S1130A2002936B6903932B7E04932623EB5C05935B
S1130A306A680692002A16D080235B059A4239D14F
S1130A402723EB5C002B39D12B6A9846C0B2844B28
S1130A509847011C40460E2206AB9C466244814BDB
S1130A609847031C27E0082398460023079327236D
S1130A70EB5C002B0CD043460093286AA96A0E2233
S1130A8006AB9C466244079B774FB847031C12E0B1
S1130A902B6A1F1CC0B2724B9847011C434600933B
S1130AA0381C0E2206AB9C466244079B6E4FB84727
S1130AB0031C00E00023181E00D0C0E06B7E002B56
S1130AC002D0AB7E524693733268069FD369002BE3
S1130AD0FCD10E3306AA944663441B885246938184
S1130AE0029B5A461343039A13433B434A46134318
S1130AF0049A12021343059A57071F432723EB5CFA
S1130B00002B01D104331F432B7F59026A7E9302C9
S1130B100B436A7F120213432422AA5C5204134338
S1130B202522AA5C12041343E97A19432B89FF2B6B
S1130B3004D0802252041743194305E0EB7E002BB6
S1130B4002D08023DB041F432C23EB5C002B03D156
S1130B50464B9B789B0701D580231F433268D3699A
S1130B60002BFCD1534659603268D369002BFCD169
S1130B7053461F600EAB80221A7000225A70DA703E
S1130B809A702B6B0A936B6B0B93AB6B0C93EB6BA5
S1130B9002930D9300270EADF9B2BB000AAA985830
S1130BA0002802D1201C324B9847431C05D02870E2
S1130BB0000CC0B2291C2F4B98470137042FEBD1EE
S1130BC00023F36033617361B361F3613362B36231
S1130BD073620022F385B3853033F2540133F25447
S1130BE00133F2540133F2543068184B9847041C13
S1130BF02149224B9847A400214BE65000201EE0D7
S1130C00102398460023079303E003239846002308
S1130C1007932B689B46EB6802936B6903932B7EC7
S1130C2004932623EB5C05936A680692002A00D19C
S1130C301DE780235B059A4200D101E73EE711B02E
S1130C403CBC90469946A246AB46F0BD2108000044
S1130C5000040040FD160000951600005106000037
S1130C6021170000610400008904000000200041F5
S1130C709D060000F91700001D0E00006108000029
S1130C804C0E002010B50368C4791C22002C0DD032
S1130C90C08D80B2173A002808D1DA69002AFCD145
S1130CA0198502211A7E0A42FCD00022101C10BDB4
S1130CB010B5046882791C23002A33D0828D92B245
S1130CC0173B002A2ED1227E52072BD5E369002B35
S1130CD0FCD1638BDBB29A0621D09A0703D5022399
S1130CE0638318331EE05A0703D5042363831A333E
S1130CF018E0DA0703D501236383123312E0DA061E
S1130D0005D5628B10231343638342230AE09B06B9
S1130D1005D5628B202313436383412302E0238D93
S1130D200B800023181C10BDF8B5061C0C1C151CE8
S1130D3007680A4B9847F38D9BB2002B03D0084BEE
S1130D409847052009E0F585054B9847B4620522CC
S1130D503323F254323BBB750020F8BD7D01000003
S1130D60BD010000F8B5041C0D1C161C07680F4BD0
S1130D709847A38D9BB2002B03D00D4B98470520B9
S1130D8013E0A6850A4B9847656205223223E25494
S1130D902E3BBB75237A002B01D02023BB75637ACD
S1130DA00020002B01D00823BB75F8BD7D01000095
S1130DB0BD010000931C9B00C3185960012393409C
S1130DC01A1C3021435C1A434254704708B501226F
S1130DD0014B984708BDC046650D000010B51723A8
S1130DE0002A06D0C4790533002C02D0024B984760
S1130DF0031C181C10BDC046290D0000002902D098
S1130E00012904D007E03223C05CC0B204E03323DC
S1130E10C05CC0B200E017207047C046F8B580003F
S1130E20654BC5582C68E369002BFCD1237EA67D55
S1130E301E403123EB5C3022AF5C1F40F30722D508
S1130E40EB8D9BB2002B1CD0AA6A1378DBB2511C29
S1130E50A9626979012901D09BB204E051780902A1
S1130E600B430232AA62DB05DB0D2385EB8D013BCC
S1130E709BB2EB85002B06D1013323750133A37597
S1130E8001E001232375B30709D50223237500224A
S1130E903133EA54FB0702D5281CEB6898477307E3
S1130EA06AD5AB8D9BB2002B64D0638BDBB21A077F
S1130EB002D43F22134001E037221340002B37D0E5
S1130EC09A0707D51A223223EA54628B303B134324
S1130ED0638327E05A0707D51E223223EA54628B24
S1130EE02E3B134363831DE0DA0707D51322322315
S1130EF0EA54628B313B1343638313E0DA0607D56C
S1130F0042223223EA54628B223B1343638309E077
S1130F1020221A4206D021323223EA54628B123B39
S1130F20134363837B0727D5281C6B69984723E009
S1130F30238DDB05DB0DDAB2696A0A706A6A511C1B
S1130F4069626979012904D11B0A53706B6A013300
S1130F506B62AB8D013B9BB2AB85002B0CD1043390
S1130F60237500222E33EA54BB0705D5281C2B69B0
S1130F70984701E004232375F30607D5102323754E
S1130F802376FB0602D5281CEB699847B30607D5E0
S1130F902023237523763B0702D5281CAB69984789
S1130FA0330707D5082323752376BB0602D52B6A9E
S1130FB0281C9847F8BDC0464C0E002008B50828E8
S1130FC003D880001C4B1B589F46002032E01B4B6B
S1130FD018692FE01A4B187D0007800F0130194B58
S1130FE0584327E0154B586924E0144B1B68022032
S1130FF018401FD0124980225200CB681342FCD003
S11310000E4B1B685B0714D500200F4B98470B4B06
S11310109B681B041B0C58430CE02823084AD35C30
S113102000209B0706D5054BD86803E0802000020A
S113103000E0064808BDC04660950000EC000020B2
S1131040000C004000093D0021170000006CDC0288
S113105030B50C4C237D857841780078032210400C
S113106080000932934303430B3A114089013F3214
S113107093430B431A1CE9017F2313400B4323754D
S113108030BDC046000C0040F0B55F4656464D46A4
S11310904446F0B4254E73699C46457803785A4219
S11310A05A41904683789A46C378477A027A93469F
S11310B0847A42681E48426101204246920090466A
S11310C004229146624649468A4394464246614612
S11310D00A4394460340DB00082290466246414698
S11310E08A431343514601400901102293430B43A1
S11310F05A460240920140218B4313430740FF01AB
S1131100802293433B43793A15402D02094F3B40DB
S11311102B4304402003084C1C40044374613CBC32
S113112090469946A246AB46F0BDC046001000402A
S1131130EC000020FFF8FFFFFFEFFFFF10B5837AFC
S11311409B061A0C83899B059B0D13431A4C636001
S1131150C18883881943437A027A13430B43427844
S1131160D201134382789201134323600378042B42
S11311700FD1837B9B06428A1343191C038A1B04E9
S11311800E4A13400B43A360216804230B432360DE
S113119011E0202B0FD1837B9B06428A1343191C39
S11311A0038A1B04054A13400B43034A93601368E4
S11311B003490B43136010BDEC0000200000FF0343
S11311C024040000082803D88000294B1B589F469C
S11311D017204BE0274A117D02230B43137500208F
S11311E044E0254A916902230B43936100203DE0CA
S11311F0204A118A02230B431382002036E01E4A40
S1131200516902230B43536100202FE01B490B68F3
S1131210022213430B60174B1A83191CFE32CB684E
S11312201342FCD0154A9168124B19625268DA6174
S113123000221A83191C0132FF32CB681342FCD0FE
S11312400E4B1B689BB20B4A138300200EE0094926
S11312502822885C022303438B54081C3821263A35
S1131260435C1342FCD1002000E000207047C046DC
S113127084950000000C004000100040EC000020A9
S1131280082832D880001A4B1B589F46194A137DF0
S113129002218B431375002028E0174A9369022129
S11312A08B439361002021E0124A138A02218B436D
S11312B0138200201AE0104A536902218B435361C0
S11312C0002013E00D4B1A6802218A431A601B6840
S11312D09BB2084A1383002008E0064928228B5C4D
S11312E0022083438B54002000E017207047C0463F
S11312F0A8950000000C004000100040EC00002005
S1131300F0B5474680B48CB0802252006F4B9A608F
S1131310FD3A6F4B9A606F494B681B3293431A3AFC
S113132013434B608023DB059B78022B09D0802379
S1131330DB05033A9A7101329A701A1C9379002BD7
S1131340FCD009A80023037080221202426083703B
S11313500122C270837204214170437202725E4B97
S1131360984705205D4B98475D490122CB681A4296
S1131370FCD001A901234B6000244C700C724C7208
S113138003250D700020574B98470620564B98476D
S11313906B465C701D709C706846544B98470620E1
S11313A04E4B984749491022CB681A42FCD001A9F8
S11313B001234B6000244C7005330B700C724C728B
S11313C00020484B9847414A117D80230B431375F5
S11313D004AB00229C80DC801A725A729A703F21FE
S11313E099813B3919705A70414B1B689B0E3F2BF6
S11313F000D1203B04A88372B723DB00438203237C
S113140083731C3303823B4B98473B4B984701AC97
S113141001260296002565702572657205232370E6
S11314200120211C2F4B984698470120334FB84781
S11314306660657025726572072323700320211C82
S1131440C0470320B84726700020211C2C4B984726
S113145000202C4B98470720204B98471B49D0224B
S11314601201CB6813409342FBD1274C0123A37193
S11314706371237101A94B6000224A704A720732DA
S11314800A700B720020174B984700201B4B98479B
S113149000201E4B98472179C9B21D4B98471D4B1C
S11314A098420ED88023DB059B78002B09D080233B
S11314B0DB0501229A7100229A701A1C9379002B81
S11314C0FCD00CB004BC9046F0BDC046000C0040FB
S11314D0001400400040004189100000C5110000C4
S11314E0001000403D150000811200005110000062
S11314F0206080003D11000019150000E91500006E
S1131500FD16000095160000000400402916000096
S113151019820000001BB700064A516940230B439F
S113152053610122044B1A70191C0B781342FCD12D
S11315307047C046000400400018004070B5041C09
S11315400D784B78002B02D08023DB001D434B7AAF
S1131550002B02D080231B011D434A68012A17D99E
S1131560531E1A420FD1022A06D902230020013049
S11315705B009A42FBD800E0002080235B011D43FE
S11315800004054304E0120480239B001A4315431E
S11315900B7A002B02D080239B011D430426A64016
S11315A00D490E4A4B6813401E42FBD10C4B984721
S11315B0A400094B9C466444206A80235B001840C5
S11315C0284320626146054A4B6813401E42FBD102
S11315D0044B984770BDC04600180040FC0700004B
S11315E07D010000BD01000010B5041C04228240EE
S11315F009480A4943680B401A42FBD1084B9847F3
S1131600A400054B9C466444236A80225200134381
S11316102362044B984710BD00180040FC070000EB
S11316207D010000BD010000F8B5041C04228240C5
S11316301248134943680B401A42FBD1114B984797
S11316400E4F0834A400E3590F2018400E4B98475E
S1131650061CE559ED04ED0FE459240C0B4B984797
S1131660002D07D1012C07D9301C211C084B9847A9
S1131670061C01E00134E640301CF8BD00180040AF
S1131680FC0700007D010000BD0F0000BD0100004B
S11316901982000010B5041C084B9847A400084B9D
S11316A0E0188022815840230B4383508021403A24
S11316B043581A42FCD0034B984710BD7D010000EB
S11316C000180040BD01000010B5041C084B9847E9
S11316D0A400084BE0188022835840218B43835098
S11316E04031403A43581A42FCD1034B984710BD4D
S11316F07D01000000180040BD01000038B5041C45
S11317000D1C054B98472B780F2213402034A4005E
S1131710024AA35038BDC046C91600000018004054
S113172010B5041C064B98472034A400054BE3581D
S11317300F241C40044B9847201C044B984710BDB1
S11317407D01000000180040BD01000029160000C2
S113175030B5D378002B1ED11478802C04D0240605
S113176080235B021C4300E0002453780225AB4332
S11317700AD19378002B03D180239B021C4302E0FF
S1131780C023DB021C4341605378013B012B12D878
S1131790184B1C400FE041600B041B0CA024E40513
S11317A0234383620B0CD024240623438362D3781F
S11317B0002B18D01CE00B041B0CA025ED052B43BB
S11317C0234383620B0CD0252D062B4323438362D2
S11317D0D378002B0CD1630305D59378012B01D169
S11317E0816100E041615378013B012B00D88160A5
S11317F030BDC046FFFFFBFF08B5031C0A1CC1092E
S11318000020002904D15809C00105498C466044D0
S11318101F210B401E399940024B984708BDC04612
S113182000280040511700007047C04608B5054B1A
S11318309847054B9847054B9847054B9847054BE8
S1131840984708BD01130000ED01000029180000AD
S11318501903000029180000931C9B001950022A48
S113186004D1027E1023134303760CE0032A04D12F
S1131870027E20231343037605E0012393401A1CC0
S1131880037E1A43027600207047C04638B58000B4
S1131890144BC5582B689C7A2B7E1C406B7E1C40D5
S11318A0E30705D5281CAB68984701232A6893727F
S11318B0A30705D5281CEB68984702232A6893726E
S11318C0E30605D5281C2B69984710232A689372D0
S11318D0A30605D5281C6B6998472B6820229A72A9
S11318E038BDC046640E002008B50020014B98475F
S11318F008BDC0468D18000008B50120014B98476B
S113190008BDC0468D18000008B50220014B984759
S113191008BDC0468D18000008B50320014B984748
S113192008BDC0468D18000008B50420014B984737
S113193008BDC0468D18000030B587B001A90C4B16
S11319400A1C32CB32C212CB12C2019B834206D094
S113195001239A0001A95258824203D100E00023D6
S1131960D8B203E00133052BF3D1002007B030BD1A
S1131970F4950000F0B5474680B48EB0051C0E1CEB
S1131980171C081CAA4B98478046AA4C211C1431EA
S11319900CA80522A84B984702A9231C1C330A1C37
S11319A013CB13C213CB13C213CB13C21B68136024
S11319B00023AB60EB602B616B612B766B76434647
S11319C09A009E4BD5502E603423FB5CAB76FB789B
S11319D0082B04D117204246D20700D523E12B71EE
S11319E033680520DB0700D51DE1F37A17309B0728
S11319F000D518E133689B0700D514E13B7C002B2C
S1131A000AD001A901238B700022CA703A7E0A70A1
S1131A104B70387D8A4B98473B7F002B0BD001A934
S1131A2001238B700022CA707A6A0A704B703B6A79
S1131A30D8B2834B984743465A0002A9531C9B00D3
S1131A4058584346DB005B58D9B204291BD88B0095
S1131A507C49CB589F467C494B691843486112E046
S1131A6079498B69184388610DE07749CB6918433C
S1131A70C86108E074490B6A1843086203E07249BC
S1131A804B6A18434862FB78082B29D1434601333B
S1131A90042B25DC02A9D31C9B005858931C9B00E3
S1131AA05B58DAB2042A1BD89300684AD3589F467D
S1131AB0654A53691843506112E0634A93691843B5
S1131AC090610DE0604AD3691843D06108E05E4A32
S1131AD0136A1843106203E05B4A536A1843506266
S1131AE03B786A4613700CAB42469C5C201C6946EA
S1131AF0574B9847201C574B9847FA79FB78134368
S1131B00BA8813437A7A002A02D0802252021343FD
S1131B10BA7A002A02D0802292021343FA7A002A67
S1131B2002D08022520313433A7B002A02D080223F
S1131B3092031343B978C9017A7892011143194386
S1131B402A681369002BFCD131602A681369002BC1
S1131B50FCD1BB793373797B4B1E99418900BB7BE4
S1131B60002B01D0012319432A681369002BFCD1EF
S1131B70FF333371002904D02A681369002BFCD188
S1131B8071713B7A73732A681369002BFCD12B792A
S1131B90042B05D0082B33D01720002B43D11CE095
S1131BA01369002BFCD12833FB5C33752A68136955
S1131BB0002BFCD12933FB5CF3762A681369002BD4
S1131BC0FCD12A33FB5C33772A681369002BFCD1E0
S1131BD02B33FB5C7377002025E01369002BFCD1C9
S1131BE03B8DB3822A681369002BFCD17B8DB383B0
S1131BF02A681369002BFCD1BB8DF383002012E00B
S1131C001369002BFCD1BB6A73612A681369002B2A
S1131C10FCD1FB6AF3612A681369002BFCD13B6B8E
S1131C2033620020FFE70EB004BC9046F0BDC0460E
S1131C3039190000F4950000FB830000640E0020B5
S1131C40F9170000CC95000000040040E095000066
S1131C50FD1600009516000002681369002BFCD1E4
S1131C600379042B05D0082B0BD01720002B0BD1A4
S1131C7003E0C9B21175002006E089B29182002008
S1131C8002E051610020FFE77047C0460368D97A3B
S1131C901522890712D41A6892070AD51A69002AEC
S1131CA0FCD11A6802218A431A6001680A69002A71
S1131CB0FCD1196801220A431A600022101C7047E3
S1131CC0FEE7C04610B51D4B1D4A9A4203D01D4B7A
S1131CD01A4A9A4204D31C4B1C4A9A4210D31EE05F
S1131CE01B4A184B03339B1A9B0801339B000022A9
S1131CF0124813498C58845004329A42FAD1EAE7C4
S1131D00144A114B03339B1A9B0801339B00002296
S1131D100E4800211418216004329A42FAD10E4A66
S1131D20FF210E4B8B4393600D4A516880230B4374
S1131D3053600C4B98470C4B9847FEE7000000207B
S1131D40B0D70000AC00002078220020AC000020B6
S1131D5004000020B000002000ED00E000000000BE
S1131D600040004191830000A93D0000F0B54746C2
S1131D7080B40C1C9046002810D1002A0ADD8F186C
S1131D80094E0A4D3068211C2B6898470134BC4227
S1131D90F8D101E000239846404601E0012040428A
S1131DA004BC9046F0BDC046800E0020780E002092
S1131DB0F0B5474680B40138022815D8002A10D05F
S1131DC0151C0E1C00240C4B98460C4F43461868F7
S1131DD0315D3B689847002809DB0134A542F5D101
S1131DE000E00024201C04E00120404201E0012026
S1131DF0404204BC9046F0BD800E00207C0E0020C2
S1131E00031C064A1268002A02D10549034A1160DC
S1131E10024A1068C31813607047C04604010020CA
S1131E2078420020012040427047C04680239B0135
S1131E304B6000207047C046012070470020704767
S1131E400022024B9A7100207047C046840E002085
S1131E500020704708B50648064B98470648074BCC
S1131E6098478022D200064BDA61002008BDC046A4
S1131E70AC9600003D850000B09600001D84000073
S1131E808028004008B5011C02481822024B9847DC
S1131E90002008BD9E0E0020FB83000008B5011C35
S1131EA002481822024B9847002008BDB60E0020B5
S1131EB0FB83000008B5011C02481622024B984718
S1131EC0002008BDCE0E0020FB83000080B5094F22
S1131ED0BD44011C01A8084A084B98470848094B0F
S1131EE098470948094B9847002084239B009D4448
S1131EF080BDC046F0FDFFFF0A020000FB83000026
S1131F00AC9600003D850000C09600001D840000D2
S1131F1010B5011C164C201C1222164B9847083C85
S1131F20A379002B22D1144C0133E37102221F3315
S1131F30E254201C213011490E320E4B9847208A5E
S1131F40231C203301210E4A0E4CA047041E07D047
S1131F500D480E4B98470E48211C0E4B984705E040
S1131F6009480A4B98470C480A4B9847002010BD73
S1131F708C0E0020FB830000840E0020D896000005
S1131F80FFFF0000E94B0000AC9600003D85000017
S1131F90EC9600001D8400001C97000030B585B04D
S1131FA0011C03AC201C0422274B9847E3780A2B1E
S1131FB046D103AB9B78032B2CD12448244B984760
S1131FC0244C618BA28BE38B2120205C0090222087
S1131FD0205C01902048214DA847201C3A3020491C
S1131FE01022194B9847208A231C393301211D4A9A
S1131FF01D4CA047002806D01448154B98471B4891
S1132000164B98471CE01148114B98471848134B3E
S1132010984715E0062B0ED10E4B588E0121114A1C
S1132020144B984700280BD00848094B984712488E
S11320300A4B984704E0072B02D10122054B9A7101
S1132040002005B030BDC046FB830000AC96000004
S11320503D850000840E0020389700001D84000098
S1132060AC970000FFFF0000C14C0000C0970000C7
S1132070E89700007D4D000008980000F0B587B097
S113208005AC01252570002666700E480E4FB84732
S11320900C48B8470D4B4A22985A0232995A009478
S11320A00196029500220223094CA047E22805D19B
S11320B00448054B98470748074B9847002007B04A
S11320C0F0BDC046AC9600003D850000840E0020A3
S11320D0CD4D0000249800001D840000014B1860C1
S11320E099807047840E002010B5134B18689988A6
S11320F0124B9847002805D01148124B98471248B4
S1132100124B984700200021114A124CA04700208E
S11321100121114AA04700200221104AA047104B78
S11321209847041E06D00648064B98470D48211CC4
S1132130064B984710BDC046840E00204D33000066
S1132140AC9600003D850000549800001D840000FA
S113215038960000552A00009898000084960000E4
S1132160753200007098000000207047002070470E
S1132170C078002800D0E2207047C0460020704795
S113218008B50078002806D00348044B9847044853
S1132190044B9847E22008BDAC9600003D85000042
S11321A0789A00001D84000010B5031CC078002834
S11321B009D01C1C0448054B98472188A278044880
S11321C0044B9847E22010BDAC9600003D8500000A
S11321D08C9A00001D840000F8B5041C194B9B2246
S11321E092009D1801270026181C1A1C563A1188C3
S11321F02288914219D11A78052A01D0082A01D1DE
S1132200077012E0072A0FD892000F498A589746A0
S11322101E700E4A1278002A07D00C4A1278013A2E
S1132220D2B20A490A7000E006707C33AB42DBD1BB
S11322300748084B9847E17822880748074B984796
S11322400020F8BD5E0F0020C09800006C11002033
S1132250AC9600003D850000C49A00001D84000077
S113226070B5061C0188264B00241A898A4204D1C1
S11322701A1C5E321278062A2AD00134E4B27C3366
S1132280052CF2D135E01E4963011A1B92008A180D
S11322901576131C583307229A711A481A4B98471B
S11322A01A481B4B9847E22527E01648164B9847D7
S11322B01848174B98477C235C43114B1B191A1C75
S11322C0583208219171F2781A75B2781A7614E0AE
S11322D0B578002DD7D1E8E70A4E301C0A4DA8473F
S11322E00C480B4CA047301CA8470B48A047E225DC
S11322F003E0B578002DC6D1EEE7281C70BDC046BA
S1132300000F0020AC9600003D850000F49A000008
S11323101D840000089B00002C9B000010B5011CCC
S1132320154B1B78DBB2132B12D8134C2378DBB27A
S11323309800C018C000C3181048C0182922104BB8
S11323409847237823780133DBB22370002012E00E
S11323500C480D4B98470D480D4B98470D4B98472B
S1132360031CE220002B06D00648074B98470A4876
S1132370074B9847E22010BDE8050020F811002023
S1132380FB830000AC9600003D850000549B0000D8
S11323901D840000194B00008C9B0000F8B54F46CB
S11323A04646C0B4061C45883A4A0023DCB2191CD0
S11323B01089A84210D1101C5E30007803280BD17C
S11323C05B015B1A9900334B5B18583305229A71F1
S11323D03579002D34D006E00134E4B201337C3287
S11323E0052BE3D128E063011C1BA400294B1C1915
S11323F058340423A3712848284B98472848294B6C
S1132400984770881321284B9847051E3DD02248D1
S1132410224B98472548234B9847E22535E01E4E2A
S1132420301C1E4DA84722481E4CA047301CA8470C
S11324302048A047E22528E03379002BEFD0D2E7EB
S11324401548164B98471A48164B98473278114F3F
S11324507C235C433B1999461A7532791A764846AF
S11324603630311C22311022134B98469847484687
S11324704630311C32311722C04748461A30B11D4C
S11324801C22C04705225E23FA54281C0CBC90462B
S11324909946F8BD000F0020AC9600003D85000071
S11324A0A49B00001D840000394B0000C49B000065
S11324B0E09B00000C9C0000FB83000010B500882A
S11324C0012101227823024CA047002010BDC04600
S11324D0594B0000F0B557464E464546E0B484B02B
S11324E0041C06886C490A1C0023DDB21F1C1089D9
S11324F0B04214D1101C5E30007802280FD1664A15
S11325005B01DB1B9B00D3185833043098716B01BB
S11325105B1B9B00D3181A7DD30705D41BE0013342
S11325207C32052BE1D11EE0E378002B13D0208808
S11325306901491B8D00584949191A31574B98476D
S1132540002800D1A2E05648564B98475648574BAE
S11325509847E2209AE06B015D1BAD004E4B5D197C
S113256058350223AB7125880022D3B2161C088982
S1132570A8420DD1081C5E300078022808D152010F
S1132580921B9600444A921958320321917105E036
S11325900133DBB201327C31052AE6D101AA0221E2
S11325A01172E17891700121517003311170002191
S11325B0D1701F1C5A01D21A92003749525C022A68
S11325C004D101AA03219171D17144E001AA01212E
S11325D09171D1713FE0C847434618403070C847F5
S11325E043461840B0740136AE42F4D153467033BA
S11325F0294A9E182E4B99460F239846C8474346AE
S1132600184028700135B542F8D1294B98477B0111
S1132610DB1B9B00204AD3181A1C703210807833BD
S113262010229A7020887A01D71BBF0060371A4A9B
S1132630BA1801A900231F4CA047002826D001ABDB
S113264000229A705A701648164B98471A48174B2E
S11326509847E2201AE001AA1021517111717A0100
S1132660D21B92000C498A18127E402ADAD15A01F0
S1132670D31A9B009A461E1C603676185546683558
S11326806D180B4B99460F239846A4E704B01CBC65
S113269090469946A246F0BD000F0020FD6100005F
S11326A0AC9600003D8500003C9C00001D840000A9
S11326B051850000C55E0000549C0000F0B55746EB
S11326C04E464546E0B484B0804604884949002219
S11326D0D3B2151C0889A0420DD1081C5E300078C5
S11326E0022808D15201521B9500424A521958320D
S11326F00321917105E00133DBB201327C31052AFB
S1132700E6D101AA022111720139917051700021A0
S11327101170D1701F1C5A01D21A92003549525CB3
S1132720022A04D101AA03219171D17141E001AAC5
S113273001219171D1713CE0C84730402870C847ED
S11327403040A8740135A542F6D153467033294A66
S11327509D18294B99460F26C847304020700134F4
S1132760AC42F9D1244B98477B01DB1B9B00214AE7
S1132770D3181A1C70321080783310229A70434692
S113278018887A01D71BBF0060371A4ABA1801A902
S113279000231A4CA047002825D001AB00229A70D0
S11327A05A701748174B98471748184B9847E22018
S11327B019E001AA1021517111717A01D21B920002
S11327C00C498A18127E402AD9D15A01D31A9B0087
S11327D09A461D1C60356D18544668346418064BBF
S11327E099460F26A8E704B01CBC90469946A24619
S11327F0F0BDC046000F002051850000C55E0000FA
S1132800AC9600003D850000809C00001D84000003
S1132810F0B585B0051C02A840490622404EB047D9
S113282001AC201C291C0422B047E378002B63D19F
S11328303C483D4B98473D483D4B984700243D4E0E
S1132840E7B23D48B047021E1AD1364F381C364E07
S1132850B0473A48364CA047381CB0473848A047E0
S113286028881321374B9847031CE220002B52D0B1
S11328702C482D4B984734482D4B9847E2204AE08A
S11328803038C3B2092B08D802ABE254101C2F4BCA
S113289098470134062C28D0D2E7052FD1D924E05B
S11328A02048214B98472A48214B98472BE002ABFC
S11328B0E05CB0470134062CF9D1288801AB997843
S11328C002AA244B9847002825D01648164B98474F
S11328D02148174B984700201DE01248124B984797
S11328E01E48134B9847002015E00E480E4B98479E
S11328F01B480F4B984706E001AB5A8880235B00C6
S11329009A4203D1CCE70024104ED0E701AB9B7868
S1132910012BE2D0002005B0F0BDC046E8990000CC
S1132920FB830000AC9600003D850000A89C0000DD
S11329301D8400002D35000030750000D09C00007F
S1132940DC9C0000394B0000C49B00005184000053
S1132950F09C0000D1600000289D0000409D000014
S11329605C9D0000F8B5061C0188304B0024E5B2DC
S11329701A898A4216D11A1C5E321278012A11D998
S11329802A496201121B92008A1858320623937155
S11329906B015B1B9B00CB1870331A8873889A42B7
S11329A013D106E00135EDB201347C33052CDED1C0
S11329B00BE0301D6901491B89001C4B5918723109
S11329C008221B4B9847002815D01A4F381C1A4E62
S11329D0B0471A481A4CA047381CB0471948A047BA
S11329E06B015D1BAD00114B5D1928890521164B48
S11329F09847E22018E0FF231C4030880B4B62010B
S1132A00111B89005918097D141BA4006034E318B4
S1132A1001220E4CA047002806D00648064B9847D2
S1132A200B48074B98470020F8BDC046000F002014
S1132A30DD830000AC9600003D850000709D000021
S1132A401D840000A89D0000394B0000C1620000F5
S1132A50009E000030B5002A47D0062947D88900D7
S1132A60284B5B589F46284B05240AE0274B01243A
S1132A7007E0274B052404E0264B012401E0264B04
S1132A800524002816D1196800290BD106E01D1C65
S1132A900433181F0068002806D100E01D1C2A60BA
S1132AA001212CE0043300210131C9B2A142EED34B
S1132AB0002124E00021012821D1196891420CD180
S1132AC006E01D1C0433181F0068904207D100E083
S1132AD01D1C00232B60012111E00433002101316E
S1132AE0C9B2A142EDD3002109E0002107E0002191
S1132AF005E00A4B0524C4E7094B0124C1E7081C7F
S1132B0030BDC046E0980000EC0E0020E80E002026
S1132B107011002038170020841100209811002023
S1132B20F4110020F0B5474680B490B0051C6A4A01
S1132B300023136053609360D3601361674A13608A
S1132B4053609360D3601361654A1360536093606C
S1132B50D3601361634A1360634A1360634A13606A
S1132B6053609360D3601361614A1360614C9B238B
S1132B709B009846A044604F4026201C00217C22E4
S1132B80B847231C5E3300221A7026767C344445F1
S1132B90F3D15A4B1A705A4C5A4B63605A4B236008
S1132BA001232C32A3540132A354584BA360584B35
S1132BB0E360584B2361584B6361584BA361584BF6
S1132BC0E361584B2362584B6362584BA362012064
S1132BD00121574B98475748574B98475748584BEC
S1132BE09847201C574B984700280BD0514E301C57
S1132BF0514DA8475448524CA047301CA84753484D
S1132C00A047FEE700200021514A524CA047002073
S1132C100221514AA04751480521514B98470028A9
S1132C2005D04448444B98474E48454B984704A820
S1132C304D49083107224D4B9847002D0CD104A86B
S1132C404B4B984704AD002806D03A483A4B984776
S1132C5048483B4B984704AD3648374B9847A979C9
S1132C606A792B79E8780090A878019068780290C6
S1132C70287803904048324CA04706AC0F232370B9
S1132C803E4B638007A8291C0722384B9847002332
S1132C90E37623776377A377E377238463848023BE
S1132CA09B00A384201C364B9847002805D021485C
S1132CB0214B98473348224B9847281C324B98475E
S1132CC0002805D01B481C4B984730481C4B98479C
S1132CD010B004BC9046F0BD84110020981100206F
S1132CE0EC0E0020F4110020E80E002070110020EA
S1132CF038170020000F00200D8400006C11002004
S1132D00C0110020E204000008010020653C00001E
S1132D10713C0000913C0000B53C0000D53C000033
S1132D20E13B0000C53B0000193C0000593C000099
S1132D305D3B0000AC9600003D850000209E000035
S1132D401D8400009D470000389E0000589E00002E
S1132D502C9A0000552A0000049A0000949E00005A
S1132D60194600009C9E0000E8990000FB830000C7
S1132D7075460000B49E0000CC9E0000983A000006
S1132D8099460000049F000005490000289F0000A8
S1132D9008B501210122064B9847002806D00548B2
S1132DA0054B98470548064B9847E22008BDC046A6
S1132DB079610000AC9600003D850000649F00002E
S1132DC01D840000F0B55F464E464546E0B49AB017
S1132DD0051C837A9946002B00D0CEE0724E301C3D
S1132DE0724FB847A9796A792B79E8780090A87866
S1132DF00190687802906E486E4CA047301CB8472A
S1132E0029896D48A0476D48291C12226C4B9847AC
S1132E1004956C48291C07226B4B9847002802D064
S1132E202B78022B04D0694E0024674B9B462AE082
S1132E3006A800215022664B9847664F00230BE0FA
S1132E40591C147806A8C45401328BB2B342F7D18A
S1132E507C37331E502B04D01E1C1036B6B23A1CDD
S1132E60EEE70520291C06AA5B4B984781460028FB
S1132E7000D191E04C484D4B984758484D4B9847EA
S1132E80E223994688E0E7B20594301C04990722AE
S1132E90D847002809D1059A53019B1A9A004B4B35
S1132EA09B18583302229A7141E001347C36052C78
S1132EB0E9D16CE05E23454AD35C002B10D117E0C6
S1132EC039483A4B9847464B1978C9B24548394B6B
S1132ED0984728891321444B9847E22399465BE09D
S1132EE0424A0123DFB21C1C1178002919D101E0E8
S1132EF00024002763019846181B8000334E801974
S1132F00291C12222E4B9847354A13780133DBB221
S1132F10137043461B1B9B00F318583302229A710B
S1132F2005E0791CCFB201337C32052BDAD1254878
S1132F30291C0722244B984700280CD17B01DB1B5A
S1132F409B00224AD31805229A741E4B00221A6051
S1132F509A809A7120E07B01DB1B9B001B4AD318EB
S1132F600A229A74174B00211960998099710A2AD0
S1132F7012D128891E4B98470EE00B480B4B9847FB
S1132F80A97A1C480B4B98470023994604E0144B3C
S1132F901B78052B8ED193E748461AB01CBC90468B
S1132FA09946A346F0BDC046AC9600003D8500009E
S1132FB0849F00001D840000C89F0000AC11002005
S1132FC0FB830000EC050020DD830000000F0020DF
S1132FD00D840000460F0020994B0000E09F000084
S1132FE06C11002004A00000394B0000DA0F00200F
S1132FF0912D000040A00000F0B5474680B403784E
S1133000002B66D13B4D0024461C3B4F301C291C31
S11330101022B84700284BD00134E4B27C35052C8B
S1133020F4D156E05E23354AD35C002B10D117E06F
S11330303348344B9847344B1978C9B23348344B2E
S11330409847344B18891321334B9847E2204EE0BC
S1133050324A0123DCB21D1C117800291CD101E085
S113306000250024254B98466E01771BBF0047447A
S1133070381C284912222A4B9847234A13780133D3
S1133080DBB2137058370223BB71751BAD002B1CC8
S113309043440A229A7421E001337C32052BD9D1AE
S11330A0002024E01B4B18891E4B984700201EE08B
S11330B0124963011A1B92008A18101C5830022509
S11330C085710A209074101C12491222144B9847DF
S11330D004E00D4B1B78052BA4D1A9E763011C1B4D
S11330E0A400064B1C19A37C0A2BDBD0002004BCD3
S11330F09046F0BD460F0020DD830000000F002045
S1133100AC9600003D8500006C11002004A0000076
S11331101D840000AC110020394B0000DA0F0020A0
S1133120FB830000912D0000F8B50D1C3A286CD8E3
S11331308300394AD3589F4684000026374FBB5931
S1133140002B04D01B59002B01D0281C98470436AF
S1133150142EF4D15FE01338C4B2A4000026304F1B
S1133160BB59002B04D01B59002B01D0281C9847B5
S11331700436142EF4D14EE01D38C4B2A400002647
S1133180284FBB59002B04D01B59002B01D0281CFD
S113319098470436142EF4D13DE02738C0B2224BB0
S11331A01B68002B37D08000C358002B33D0081C79
S11331B0984730E02D38C0B21C4B1B68002B2AD036
S11331C08000C358002B26D0081C984723E03638CB
S11331D0C4B2A4000026164FBB59002B04D01B59BF
S11331E0002B01D0281C98470436142EF4D112E089
S11331F03838C0B20F4B1B68002B0CD08000C3586A
S1133200002B08D0081C984705E00B4D281C0B4CDC
S1133210A047281CA047F8BDFC980000841100209A
S113322098110020EC0E0020F4110020E80E00207C
S11332307011002038170020AC9600003D85000076
S113324010B5084808491422084B9847041E05D1B4
S1133250044B18780449064B984700E0E224201CEC
S113326010BDC046F01100202C1500209D3F000029
S113327029310000F0B591B008AC03236370112725
S1133280A7701822E2702370033323710926667134
S1133290262068441349133A134DA84715236A4658
S11332A05370901C11491022A8476B461F70E67298
S11332B0FF2323732D2068440D4910310822A847A9
S11332C0201C15216A4612230A4CA047002805D069
S11332D009480A4B98470A480A4B9847002011B0FE
S11332E0F0BDC046949E0000FB83000068A000006F
S11332F0E899000059490000AC9600003D850000A3
S11333007CA000001D84000010B582B009480A4B5F
S113331098470A480A4B98470A48011C1231031C73
S1133320143300930123019300220023064CA04789
S113333002B010BDAC9600003D850000A0A00000C6
S11333401D8400004417002085540000F0B55F463A
S113335056464D46E0B483460F1C1F4C00250026FC
S1133360658202239A4623701C481D4910221D4B76
S113337099469847A5825346A37518481A491022BE
S1133380C847122323855B46E36227866786332278
S11333903423E254A563A587E5871033E65401334B
S11333A0E6540133E6540233E5520233E552023364
S11333B0E5520E4B2F3A1A705E7014325A80173A47
S11333C01A710F32DA802564094B98471CBC914668
S11333D09A46A346F0BDC046441700204517002076
S11333E068A00000FB830000BCA000003C17002084
S11333F00933000070B582B0051C0E1C00226B4618
S1133400DA80064C281C6B46991DA0470028F9D188
S11334106B4606331B88337002B070BDB10C0000DC
S113342070B5051C8CB2034E281C211CB047002823
S1133430FAD170BD850C0000F0B591B08023DB0596
S1133440009300230193FF2269460A8100228B72B4
S1133450CB7201242421684644540131445401317F
S11334604354013143540A930531435401314354C5
S113347005930382C376027602774276132383761A
S1133480427780235B0303931A4B0C931A4B0D93DF
S113349001235B420E930F93E1235B020893174DC4
S11334A0174B1D60174A184B1A60184A184B1A60BC
S11334B0281C18496A46184B9847184F3B68986867
S11334C00021174EB0473B6858680021B0472E686A
S11334D0301C144B98471F2318408440124B1C6027
S11334E02A68D369002BFCD132680233134333605A
S11334F011B0F0BD0200160002001700F405002010
S1133500800E0020213400007C0E0020F5330000E2
S1133510780E0020000C004229090000A8000020B9
S1133520C98500009D08000000E100E0F0B583B00B
S1133530041C00226B46DA80094E0A4D0A4F02E051
S1133540013C0120B847301C6B46991DA847002850
S113355001D0002CF4D16B46987903B0F0BDC0467D
S1133560F4050020B10C0000510100007047C04672
S113357008B5024B1878024B984708BD280600206E
S1133580393C0000F8B5061C0D1C084C084F201CE3
S1133590311C2A1CB8470028F9D1044D054C281CBD
S11335A00121A0470028FAD1F8BDC0469417002095
S11335B0DD0D0000FD0D000008B5011C0148024BA3
S11335C0984708BD94170020CD0D000070B590B049
S11335D08023DB05009300230193FF2269460A81BF
S11335E000228B72CB72012124206C4621540130BD
S11335F0215425316354013163540A9305316354D2
S11336000131635405932382E3762276227762762E
S11336101323A3766277E1235B02089380235B0381
S113362003931D4B0C931D4B0D9301235B420E938F
S11336300F931B4E1B4D1C4C301C291C6A46A04783
S11336400028F9D1164D2C68201C184B98471F23CD
S113365018401E3B8340181C154B18602A68D36918
S1133660002BFCD122680233134323600C4C201C32
S113367010490122104DA847201C10490022A847D8
S11336803122A15C03230B43A3540D480D4B9847EF
S1133690002010B070BDC0460300280003002900BC
S11336A09417002000100042290900009D08000022
S11336B000E100E071350000B50D00006D3500003B
S11336C028060020B935000070B590B0494D2C682B
S11336D0201C494B98471F2318401E3B8340181C4D
S11336E08023464AD0502A68D369002BFCD1236832
S11336F00222934323603F4D2C68201C3E4B984785
S11337001F2318401E3B8340181C80233B4AD05083
S11337102A68D369002BFCD12368022293432360D7
S1133720344B1A68D369002BFCD10121216080231A
S1133730DB05009300230193FF22684602810022E7
S11337408372C37224206C462154013021542531E4
S11337506354013163540A93053163540131635452
S113376005932382E3762276227762761323A37667
S11337706277E1235B02089390235B030393204B5E
S11337800C93204B0D93204B0E93204B0F93194E0B
S11337908425ED051E4C301C291C6A46A0470028D0
S11337A0F9D1144D2C68201C134B98471F23184043
S11337B01E3B8340181C114B18602A68D369002BE8
S11337C0FCD122680233134323600A4C201C1149A4
S11337D00122114DA847201C10490022A84731227C
S11337E0A15C03230B43A3540D480E4B984710B020
S11337F070BDC046941700209D08000000E100E061
S11338000300040003000500030006000300070092
S11338102909000071350000B50D00006D35000068
S113382028060020B935000008B50248024B984725
S113383008BDC04628060020B935000008B5014B74
S1133840984708BD7D01000008B5014B984708BDA5
S1133850BD01000008B5024B1B68984708BDC0466F
S1133860CC17002008B50B4800210B4B98470B4A96
S1133870138801339BB21380094A1268934207D319
S11338800022064B1A80074B1B68002B00D0984778
S113389008BDC046D8170020591C00002A06002085
S11338A0D0170020C817002010B58EB000236A4638
S11338B01370D3709371D3715370937013725372E6
S11338C09372D372137393735373137405930693A0
S11338D01377089309931385343300226946CA5435
S11338E0E023DB008B8029230022CA540C4B6A4658
S11338F04B8501235B428B850A4C201C0A490B4BE8
S1133900984722681369002BFCD1116802330B43DA
S11339101360044806490222064B98470EB010BDB6
S11339201BB7FFFFD8170020002C004275190000B8
S11339306538000059180000014B18607047C046F4
S1133940C817002010B50D4B18600D4C201C002129
S11339500C4B984720680C4B98470C4B1B5C1F2260
S113396013401E3A9A40131C094A1360627E1023C6
S113397013436376236810225A7210BDD0170020B7
S1133980D8170020591C00003919000018A10000A4
S113399000E100E0034B10211A6811725A7E8A4339
S11339A05A767047D817002030B58FB0041C3E4BB0
S11339B098473E4B5B6A002B70D101213B4B596207
S11339C03B4B1C60002200236846027000206C46BA
S11339D0A280A071E3716370A37023726372A372F7
S11339E0E3722373A37323740592069223770892D8
S11339F0099222856285A28534236A46E054617364
S1133A000823E3702B4C201C2B492C4B98476B4606
S1133A1018782B4B9847FA2189002A4B98472A4B50
S1133A201860201C0021294B984722681369002B39
S1133A30FCD1116802330B4313601E4B1A681369DF
S1133A40002BFCD1403353711A4C201C2049002216
S1133A50204B98472068204B9847204B1B5C1F2223
S1133A6013401E3A111C99400B1C1D490B60617ECA
S1133A7001230B43637623685A726B461878104B04
S1133A8098470A4D28622B1C07CC07C307CC07C3F1
S1133A9022681A60134B9847281C02E0114B984780
S1133AA000200FB030BDC0467D0100000C00002096
S1133AB0CC170020F41700200008004375190000FB
S1133AC02916000019820000D4170020591C000098
S1133AD055380000591800003919000018A10000D9
S1133AE000E100E0BD01000010B5094C094B1B6862
S1133AF05943C943201C084B984723681A69002A74
S1133B00FCD11A711A69002AFCD120325A7110BDF5
S1133B10F4170020D4170020591C000008B5074BE7
S1133B201A681369002BFCD1403353710348044BCA
S1133B3098470022034B5A6208BDC046F417002080
S1133B408D1C00000C000020034B1A681369002B25
S1133B50FCD1403353717047F417002070B582B024
S1133B60124B1870CF2301281DD1114B984701AC7B
S1133B700023A37001332370013363702720211CB9
S1133B800C4EB0470C4D2B1C803380229A610320CD
S1133B90211CB04708246C613220084B9847AC6163
S1133BA0074B98470023181C02B070BD3006002054
S1133BB0150100003D0400000028004051010000F0
S1133BC0CD35000008B5044B1B78012B02D189B216
S1133BD0024B984708BDC0463006002085350000DA
S1133BE0002809D1012903D10822094B9A610EE06A
S1133BF00822074B5A610AE0012808D1012903D1A0
S1133C00044B80229A6102E0024B80225A61704781
S1133C10002800408028004008B5044B1B78012B85
S1133C2003D1034B1860034B984708BD30060020AE
S1133C302C0600202938000008B5054B1B78012B01
S1133C4004D1044B1B68002B00D0984708BDC04624
S1133C50300600202C06002008B5014B984708BD0B
S1133C60C936000008B5014B984708BDA9390000C2
S1133C7010B5041C034B9847201C034B9847034B77
S1133C80984710BD3D3800001D3B00004938000036
S1133C9038B5051C0C1C044B9847281C211C034BED
S1133CA09847034B984738BD3D380000E93A000077
S1133CB04938000010B5041C034B9847201C034BE3
S1133CC09847034B984710BD3D380000493B00001E
S1133CD04938000008B5014B984708BD5101000060
S1133CE00122014B1A7070473106002000207047F2
S1133CF08022D205014BDA617047C046802800401B
S1133D0008B50022034B1A700120034B984700208A
S1133D1008BDC046310600204539000010B584B006
S1133D20C823DB0000930E4B019300230293002071
S1133D30012100220B4CA047041E06D10A480B4B5C
S1133D4098470B480B4B984706E00748074B9847A2
S1133D500948084B9847E224201C04B010BDC04613
S1133D608F020000DD490000AC9600003D85000094
S1133D7020A100001D8400003CA1000008B5002221
S1133D80054B1A700132054B1A70054B9847054BC9
S1133D909847002008BDC0463106002034000020AA
S1133DA0953900001D3D000010B584B01E4B9847A6
S1133DB01E4B98471E4B984701AC201C1D4B98473F
S1133DC00222019201232372802189026160E2723E
S1133DD0A3720220211C184B984718480221002284
S1133DE0174B984702200021164B98471648174B4B
S1133DF098471748174B98471748184B984700207F
S1133E00174B984717489621174B98470020174B94
S1133E109847174B984700200021164A164B98479D
S1133E20164CA047FDE7C0462D18000039340000A9
S1133E30A93800009D030000B1030000F13C00001C
S1133E402502000051020000E13C00003939000065
S1133E50AC9600003D8500005CA100001D840000BC
S1133E60252B000010180020DD200000E9200000B0
S1133E701D3D00007CA10000552A000041320000D5
S1133E8070B50C4D2C68002C13D02668E2602E60AF
S1133E900025094A238113682560A080E180AB4294
S1133EA001D1146005E01A68002A01D0131CFAE756
S1133EB01C6070BDDC060020D40600200A4B0022E2
S1133EC0191C10B51868094B9C18D0501032201CCE
S1133ED0A02AF8D190330B60054BA13A5A801A807E
S1133EE000229A60DA6010BDDC060020340600204F
S1133EF0FC18002038B5204C051C081C2188231C04
S1133F00A9420ED1A18881420BD101235B422380B7
S1133F10A2601A4B628801219A422BD1184B984710
S1133F201CE05988A9420CD19988814209D1012108
S1133F30494259809968002901D19A60EEE7DA6014
S1133F40ECE7104B9D420FD00F4B9D4208D00F4B16
S1133F5000219D420ED1101C0D4B9847012109E010
S1133F60111C0C4B002202E0111C00220A4B984742
S1133F7041424141081C38BDFC180020FFFF0000ED
S1133F80295D0000130E0000150E0000010E000054
S1133F906D6800003D6A0000156B00000023F0B559
S1133FA00D1C85B0029003920370B84B0398984798
S1133FB000230193B64C2368002B04D1B54B9847DA
S1133FC00190D028F6D1B44B9847019BD02B00D157
S1133FD08BE223681A68D9682260DA880092AF4AB3
S1133FE09C88106813601860019B002B00D07CE251
S1133FF0AB4B9C4208D1009BA34200D065E238231E
S1134000029A1370296070E2009BBB2B25D1BB2C54
S113401023D16B469B88AB808B784A781B02CC7883
S1134020087913434A799F49AC702B808B4206D898
S11340309D4A93420BD29D4A934208D009E09C4981
S11340408B4206D113020343AB80372302E03623AD
S113405000E00023029A137047E2964B9C4200D181
S1134060A2E100D983E0944B9C4200D1FDE13CD80D
S1134070924B9C4200D1FCE116D8914B9C4200D15A
S1134080D5E104D83826B44200D12CE21DE28D4B90
S11340909C4200D1D1E1FE33FF339C4200D014E2B4
S11340A000982A1C884B94E1884B9C4200D1D0E1B3
S11340B00DD8874B9C4200D1C5E1864B9C4200D071
S11340C003E200982A1C844B984714260BE2834B86
S11340D09C4200D1C3E1824B9C4200D0F5E10098A0
S11340E02A1C804B98471826FDE17F4B9C4200D147
S11340F0CCE11ED87D4B9C4200D1CEE10DD87C4B47
S11341009C4200D0E1E100982A1C7A4B9847A98888
S1134110061C794B28889847E5E1784B9C4200D1EE
S1134120ADE1774B9C4200D0CFE100982A1C754B3F
S11341304FE1754B9C4200D12AE109D8083B9C42CF
S113414000D19EE0714B39269C4200D1CBE1BCE109
S1134150D1231B019C4200D120E16D4B9C4200D035
S1134160B3E1081C6B4B291C98470F26BBE16A4B33
S11341709C4200D135E13DD8684B9C4200D152E1CC
S113418019D8674B9C4200D11AE107D8033B9C42E3
S113419000D09AE100982A1C624B1AE1624B9C42BF
S11341A000D107E1614B9C4200D08EE100982A1CAB
S11341B05F4B98476FE15F4B9C4200D106E10BD8FF
S11341C05D4B9C4200D12AE15C4B9C4200D07CE1D7
S11341D000982A1C5A4BFCE05A4B9C4200D1FAE04E
S11341E0594B9C4200D070E100982A1C574B9847C9
S11341F00E2678E1564B9C4200D104E120D8554B61
S11342009C4200D105E10DD8534B9C4200D1EEE015
S1134210524B9C4200D058E100982A1C504B9847BE
S1134220122660E14F4B9C4200D1E6E04E4B9C428B
S113423000D04AE1081C4D4B291C98472A2652E11C
S11342404B4B9C4200D134E10DD84A4B9C4200D1E7
S113425029E1494B9C4200D037E100982A1C474B86
S1134260984730263FE1464B9C4200D127E1454B1D
S11342709C4200D029E100982A1C434B98473226DF
S113428031E1081C414B291C91E0C046B95C000097
S1134290D4060020355D0000DD5C0000DC06002053
S11342A0FFFF00001E2000001D200000030C000082
S11342B01F2000001C0D00000C0C0000020C00006C
S11342C0020A0000030A0000ED7B0000060C000057
S11342D0040C0000050C0000D97A0000070C000053
S11342E0090C0000CD7C0000170C0000120C00002B
S11342F00D0C0000997B0000557A0000130C00009F
S1134300150C000029560000080D0000010D0000E6
S1134310150D0000897700001B0E00000F0E000031
S1134320030E000041660000060E00000A0E0000A5
S11343301D6F0000150E0000110E0000130E00008A
S1134340156B0000170E0000190E0000616E0000CE
S1134350270E0000210E00001C0E00001D0E0000A0
S11343603D700000220E0000250E0000C370000006
S1134370051B0000011B0000031B0000DB7F000085
S1134380061B0000081B0000F37F0000F17300000F
S1134390081C5B4B291C98470426A4E0081C594BB5
S11343A0291C984701269EE0081C291C564B984757
S11343B0061C98E000982A1C544B9847112692E05A
S11343C0081C534B291C984706268CE02A1C00988D
S11343D0504B9847ECE700982A1C4F4B98470D2602
S11343E081E000982A1C4D4B98470B267BE00098EF
S11343F02A1C4B4B9847102675E0081C494B291C76
S1134400984728266FE0081C474B291C9847292603
S113441069E0081C454B291C9847272663E000984F
S11344202A1C434BD5E700982A1C424BD1E7081CB1
S1134430414B291C98472B2655E0081C3F4B291C4F
S113444098472C264FE000982A1C3D4B984713268A
S113445049E000982A1C3B4B9847152643E00098F6
S11344602A1C394B984716263DE000982A1C374BE6
S1134470AFE700982A1C364B9847232633E0009B6D
S1134480081C1F0A2F80291C324B90E7081C009A35
S1134490291C314B98473A2625E000982A1C2F4BBB
S11344A0984720261FE000982A1C2D4B9847332656
S11344B019E000982A1C2B4B9847342613E00098E7
S11344C02A1C294B984735260DE0C522274E28493A
S11344D05200284B37682848B84733682748009962
S11344E0221C98470026029B1E70029B1B783A2BC5
S11344F003D1019B002B00D157E5019805B0F0BD15
S1134500D573000091760000AD770000C16F000004
S1134510956900003D6A0000BD6D0000756F0000E4
S11345208B6F0000557000008370000099700000CC
S1134530C16E0000EB6E0000C15D0000ED5D000087
S11345409D7A0000217B0000657B0000997B0000C0
S1134550BD7C0000BD550000ED5500000D7D000040
S1134560D17F0000E17F0000E77F000044000020CD
S1134570F6A10000C8A10000D9A100001DA20000FE
S1134580F7B50E4900240B680F1C1E1C0C4A156855
S11345900192002B0ED09A881968824207D1002C10
S11345A001D0216000E00E1C1D601D1C231C1C1C7E
S11345B00B1CEEE7019B3E601D60F7BDD406002096
S11345C0DC060020F7B5124A0090136811481F1C3E
S11345D00021844604680192002B14D0D888009AE4
S11345E01D68060A96420BD1FD2606400C2E07D103
S11345F0002901D00D6000E02F1C1C601C1C0B1C4A
S1134600191C2B1CE8E7019B1F6063461C60F7BD67
S1134610D4060020DC06002038B5002802D04B1E4A
S11346201F2B0BD90D4C0E49F7220E4B0E48256853
S1134630A84723680D489847CF200DE00C4A131C67
S1134640AA33198000231C1CC55CAC3401331555F6
S1134650DCB28C42F7D3002038BDC04644000020B1
S113466090A20000E1A40000D9A10000DFA2000094
S11346709C19002010B5041CCF20002C06D0044B3C
S1134680CE38211C9847034B1B79237010BDC046BC
S1134690997200009C190020F0B5067989B0041CB9
S11346A0032E0CD9A722334D33495200334B2E68C5
S11346B03348B04721792B683248984720E0037883
S11346C00F2B0DD954222B4D2B49FF322B4B2E6827
S11346D02B48B0472B6821782B489847E02546E0C3
S11346E08023878C9B009F420CD95A22214C234B58
S11346F023482149FF322568A8472368234898475F
S1134700CF2534E0C57F837FAD015B011D43C37EAC
S11347101D43437F1B011D43037F9B001D431C4B13
S1134720EDB21E710079032809D803F06BFD020471
S11347300606002302E0012300E002232371231C68
S11347400B33618807932379207800930195258C96
S1134750621D0295658C079B039504970D4DA84730
S11347602671051C211C0A4826220B4B9847281C3D
S113477009B0F0BD4400002090A2000052A2000045
S1134780D9A10000F2A2000010A300002DA3000094
S11347909C19002075710000FB8300007FB5041C88
S11347A046490B22464B01A89847201C454B984785
S11347B0051C041E09D0444C444B454845492D2250
S11347C02668B0472368444872E0444B9847231C4A
S11347D0051E09D03C4C3D4B3D483E4933222668DA
S11347E0B04723683E4863E001213E4A49429A1893
S11347F012335181902BF7D13B4C813B23703B4BBF
S11348003B4A6380002323710133581E190101437D
S1134810023311700132212BF7D180229200A2843D
S1134820221C002373321370221C72321370221C58
S113483076321370221CCC321380211CA022D0317A
S113484052000A80211CCE310A80221CD2321380ED
S1134850FA21221C4900D4321180221CD632E3767C
S113486023776377A377E377238463841370201C0F
S1134870204B9847051E09D0134C144B1448154976
S11348805D222668B04723681B4811E0072374346F
S1134890237001A80B21194B9847051E0AD00A4C16
S11348A00A4B0B480B4966222668B0472368144814
S11348B0291C9847281C04B070BDC04647A20000BC
S11348C0FB830000655B000044000020F8A40000A6
S11348D0D9A1000090A2000057A30000E5700000D9
S11348E073A300000C1900209C190020983A0000C2
S11348F0A7190020994600008CA300001946000067
S1134900AFA3000038B5451C031CCF20002D18D0E0
S11349101A78032A15D8012A02D15A78002A10D00D
S11349201C1C291C0622074B074898472378074874
S11349300371074B98472378002B02D1281C054BA1
S1134940984738BDFB830000A11900209C19002062
S11349509946000099640000F8B584460F1C161CA3
S11349601C1C002802D1E220002A2BD0CF201F2FAC
S113497028D81F2C26D86346002B0ED01248134D7E
S1134980002F04D1391C1F22114B984703E06146C4
S11349903A1C104B984772352F70301E12D00B4DB5
S11349A00D48002C07D1211C1F22094B7335984751
S11349B02C70201C06E0311C221C064B984700205A
S11349C073352C70F8BDC046D01900209C19002006
S11349D00D840000FB830000EF190020F0B591B0B6
S11349E01F1C16AB1D8817AB1B880D910E9318ABBB
S11349F01B78041C0F93424B161C73331B78CF2077
S1134A000C93012C03D10E9B002B76D124E0042CB3
S1134A1073D88023DB019D426FD8002C02D11F2D57
S1134A206BD903E09F2D01D8012C66D1002F09D04A
S1134A300D9BCF20013B012B5FD9012C02D1002D0E
S1134A4000D120352F4B9847011C002E43D03378DA
S1134A50601E002B09D13BE08023DB019D424CD832
S1134A60002E4AD0002FE3D12BE0012303283AD9AA
S1134A700D20721C02E00E20321EFAD1204C743438
S1134A8026780724002E00D0341C00920D9A03943B
S1134A9004921B4A019502950597723212780E9C76
S1134AA00692194A07920C9A0892184A09926422AB
S1134AB0624392B20A920F9A154C0B92154AA04780
S1134AC01BE0002DBED10F4B98472025011CBEE7EB
S1134AD00328CDD806E0601E032803D9331C0D201B
S1134AE0321CCBE7002303F083FBC60604020F202D
S1134AF0C2E700220C920C20BEE711B0F0BDC04604
S1134B009C19002079760000D0190020EF190020AC
S1134B1065750000983A000010B5054B9847041ECF
S1134B2003D1D120034B00019847201C10BDC0467F
S1134B30717300008145000038B5041C044B081C47
S1134B40211C9847051C034B201C9847281C38BD82
S1134B504D690000C545000070B5094CA047041E0E
S1134B600BD0D022074D0849084B094892002E6803
S1134B70B0472B680748211C9847201C70BDC046CD
S1134B80716E00004400002090A2000068A20000A2
S1134B90D9A10000CEA2000010B5CF2300280AD06E
S1134BA0002908D0002A06D00C78022C03D1034B2C
S1134BB0013198470023181C10BDC0461977000026
S1134BC0CF23022801D8024B1B5C181C7047C04637
S1134BD004A50000831EDBB203200E2B01D8014A7A
S1134BE0D05C704781A20000F0B587B005900291B7
S1134BF004921D1E09D12A4C2A4B2B482B493122E1
S1134C002568A84723682A480FE0029B002B03D09D
S1134C10049B029A93420BD23722214C2248234907
S1134C20204B2568A847236822489847CF2035E0C1
S1134C30214B287898472B1C041ECF2C08D1184DE3
S1134C40184B194819493E222E68B0472B68EBE7E8
S1134C505A1BD2B20392A2420DD201331A78002A0F
S1134C60F6D00F4F0F4B1048104946223E68B0470C
S1134C703B6810489847039BA34204D1084C0A4858
S1134C800A494C22CCE7059B013501930320211CE2
S1134C900095029A049B094CA047002007B0F0BD80
S1134CA04400002032A60000D9A100004DA5000058
S1134CB007A40000B5A20000C14B00002579000044
S1134CC0F0B585B003900E1C171C1D1E09D1234C92
S1134CD0234B2448244994222568A8472368234861
S1134CE00CE0002901D08A420BD29A221B4C1D48A9
S1134CF01D491B4B2568A84723681D489847CF20AA
S1134D0029E018781B4B98472A1C041ECF2C0CD181
S1134D10124D134B13481449A1222E68B0472B6837
S1134D20EBE701321178002903D1531BDBB2A34214
S1134D30F7D3A34204D1094C0A480B49AF22D8E760
S1134D40039B013501930620211C0095321C3B1C5A
S1134D50094CA047002005B0F0BDC0464400002027
S1134D6007A50000D9A100004DA5000007A400007C
S1134D70B5A20000C14B00002579000037B5131C13
S1134D800D1E01D08A420BD20A4C0B49C6220B4B92
S1134D900B482568A84723680A489847CF2008E0AD
S1134DA0002401902A1C07200094211C064DA847CA
S1134DB0201C3EBD440000204DA500002EA500008F
S1134DC0D9A10000DFA20000257900007FB5141CE2
S1134DD008AA0D1C02CA061C0AA812780078002929
S1134DE009D11B4C1B4B1C481C49DF222568A847D2
S1134DF023681B480AE0002B0BD1154C154B1648B1
S1134E001649E5222568A847236816489847CF2005
S1134E101BE000280CD00C20002A0DD00C4C0D4BAC
S1134E200D480E49EA222568A84723680E48EDE795
S1134E30501E82410D32101C00930191231C0296D6
S1134E4001212A1C094CA047002004B070BDC046B3
S1134E504400002016A60000D9A100004DA50000C2
S1134E60F8A300007AA500008FA50000C179000016
S1134E7070B5051C00240C4B19680C4B1E688C4241
S1134E8010DC0C206318DA0FD318021C5B105A4391
S1134E90B0180288AA4201D2591EF0E7AA4202D9E8
S1134EA05C1CECE7002070BDF4060020EC0600203A
S1134EB010B503248306044040069B0FC00F002C4A
S1134EC001D0A1B202E04C1EA14189B2002B01D055
S1134ED09B0002E0002A01D004231943002801D1D9
S1134EE0802000E090208001084310BD70B50325A8
S1134EF08C060D404906A40FC90F0023860700D570
S1134F00ABB2060704D5A60033438026B60133436B
S1134F10860601D52E013343C60601D5AD012B43C8
S1134F2080256D00284200D02B43C50702D580257B
S1134F30AD002B43002902D08021C9000B43410757
S1134F4004D5A1000B43802109010B43410602D57E
S1134F5007490B439BB2010605D5A40023439CB229
S1134F6084239B0123439003034398B270BDC0463E
S1134F700410000007B56A460B7813704B78537021
S1134F804B8893701B0AD3700B791371CB8807215C
S1134F9053711B0A9371014B98470EBDBD7E0000EF
S1134FA0F7B5254C1D1C23680190D326002B40D057
S1134FB01E1C0C3E2660002905D0204FBC466046CE
S1134FC03F68BF1807601D4807688446BE422AD957
S1134FD0684680880C3B18802368002909D0002A81
S1134FE007D0604600689A80801A9860144B9847EE
S1134FF002E000219A8099600023226893702B07B5
S113500004D50121226893780B439370ED0904D0F1
S11350100221226893780B4393700A4A002613688E
S11350200133136005E023601126002901D0BA1A68
S11350300260301CFEBDC046EC060020F0060020D5
S1135040FB830000F4060020F8B5051C0E1C141C9C
S11350501F1C002A15D00A07104BD20FD2039C46FE
S113506004D0211C3A1C331CE04715E0111C331CEE
S1135070E047002810D1281C391C221C084B9847F3
S11350800AE0084C0849FB22084B09482568A84750
S1135090236808489847CF20F8BDC046A14F0000B8
S11350A0BD7E00004400002072A600005AA6000045
S11350B0D9A1000055A3000037B5094B051C081CF5
S11350C00C1C9847002809D08268002A06D08388DF
S11350D0291C0092201C0022024CA0473EBDC04661
S11350E0714E00001D780000F0B58BB0049310AB36
S11350F00024029204CB1022051C1B880691059300
S113510012AB1B78211C0393BB4B1E68BB4BB71D12
S113511072803480381C9847B94B28789847B94B2B
S1135120021C691C381C984704222B7874711B01DB
S11351301343039A029C9201134333711623049A76
S113514012345343029A1233D718BC420FD0AE4BD9
S1135150218800930E2306AA9B180193AB4D301CA3
S113516001220223A8471634051EEED040E1109F09
S1135170002314373C1C0293029B059A934200DBE4
S1135180B0E0A34B06AA00930E239B1801939F4DF6
S1135190301C042101220223A847051E00D027E168
S11351A0231C123B1B78257B1A1C291C0393208883
S11351B0984B98472D076389ED0FED031D43079026
S11351C08F4B03989847221C113A0092033A031C10
S11351D00192291C301C8D4D079AA847051E00D04A
S11351E006E1C02223885200134204D1A38A039308
S11351F0002B15D132E01906C90FDB0501D50223B6
S11352001943854B06AA00930E239B1801937F4DE7
S11352100902301C01220223A847051EE6D0E7E05C
S113522080232288257F5B001A40281C0121002A44
S113523000D00A1C794B9847794B2D070093231C07
S1135240ED0FED032843203382B201936F4D301CE0
S113525003990223A847051E00D0C9E00121238831
S11352600B4211D0A07F6D4B002298476D4B021C5E
S11352700093231C24330193644D301C6A49022398
S1135280A847051E00D0B3E0302322881A4212D06A
S11352900121607F0A1C614B9847644B021C0093F8
S11352A0231C22330193594D301C5F490223A84724
S11352B0051E00D09CE0A369002B0ED05C4B06AA0F
S11352C000930E239B180193504D301C072101229B
S11352D00223A847051E00D08AE0029B3C34013318
S11352E0029349E7301C534B9847051E00D07FE0DA
S11352F03388069A13803688049B059AF618B3B24D
S113530002933C235343109A1433D3180493049BFD
S11353109F426DD0029B9C1C3B1CA4B2143B1C807E
S113532003933B89002B08D1C0233A885B001A42BF
S11353301FD0029E0336B4B21BE03B7B7A89190767
S1135340C90FC90307D07968002900D13A49201C44
S11353503A4EB0470AE0201C384EB047002846D1E8
S1135360039B398918887A68354B98470028DBD025
S11353703DE0BB8A002B0AD00134A4B23C84397FBF
S1135380FB8A201C3A692F4EB04700282FD13B8856
S1135390DB070DD500220134A4B209A9BC84BB7F6C
S11353A0201C0A704A70254E0232B04700281ED1D4
S11353B030233A881A420DD000220134A4B209A93C
S11353C07C847B7F201C0A704A701C4E0232B047DA
S11353D000280CD1B969002906D00134A4B2201CDC
S11353E0194B9847002802D13C3702948FE7051CDB
S11353F0281C0BB0F0BDC046F80600200D84000048
S1135400C14B0000FB83000035000020257E000016
S113541037000020ED4E000041000020B14E000096
S11354203F0000203D0000200280000039000020E1
S11354303B0000201D7D0000E8060020A14F000075
S1135440BD7E000049500000754F0000084B094A1A
S113545018604B081360084AC3181360074A4118C0
S11354601360032303319943054B043919607047D2
S1135470F8060020E0060020E4060020F0060020E4
S1135480EC0600207FB508AC40CC051C2488CF2056
S1135490002D0CD000290AD0002E08D0002C06D0F4
S11354A0CE38019402900096281C024CA04704B008
S11354B070BDC046E950000070B50B4B061C0C1CB7
S11354C0151C9847002808D08068002805D0211CA6
S11354D02A1C064B9847002004E0301C291C221C7F
S11354E0034B984770BDC046714E0000FB8300001B
S11354F0BD7E000070B50C4B061C0C1C151C984797
S113550000280BD08368002B08D083882B808288E6
S11355108168064B201C9847002004E0301C291C9D
S1135520221C034B984770BD714E0000FB830000A2
S1135530457F0000F0B585B0041C0191002929D1F4
S11355404788184B381C261C98470836002809D071
S11355508068002806D0A388E288C018311C124B4A
S1135560984717E002AB9D1D00232B800F4B2A1C8C
S11355701B68381C191C00930D4B9847009BA0888E
S1135580E2881818311C084B984760882A880099CB
S1135590084B984760882188019A074B9847002058
S11355A005B0F0BD714E0000FB830000A8A600000A
S11355B0F5540000B95400009178000038B50C1C73
S11355C0074B98476588074B281C98478378262003
S11355D0DB0704D42088291C034B98473A2038BDA4
S11355E0CD770000714E0000B950000038B50D1C95
S11355F00A4B141C98472D88094B281C9847220AEB
S1135600031C084C91B2002803D082880023281C74
S113561001E0281C0122A0473A2038BD117800007F
S1135620714E0000D978000010B5141C074B984740
S1135630074B60889847022381782220194003D1C0
S1135640201C044B98471F2010BDC046D97700008A
S1135650714E0000355500000122014B1A7070474D
S11356600A070020002210B50C23534307495C5855
S1135670002C06D101225A50CB1898605C60181C8B
S113568003E00132042AEFD1002010BD0C070020F2
S1135690F7B5174F174E3B6830689B680121984750
S11356A00023154D2B70154B1C1D34330193231F00
S11356B01B68012B0FD12368002B0CD0013B236006
S11356C0002B03D16368002B00D098472368002B7C
S11356D001D001232B70019B0C349C42E7D12B7821
S11356E0002B03D13B683068DB689847F7BDC046A0
S11356F068070020780900206E0900200C070020AC
S113570008B5054B054A1B6810689B68012198473A
S11357100122034B1A7008BD680700207809002095
S11357206E09002008B500230C4A436013700C492D
S11357305858012805D1C9184968002901D01070AA
S113574002E00C33302BF2D11378002B05D1054B3A
S1135750054A1B681068DB68984708BD6E0900207D
S11357600C0700206807002078090020F8B5114EC6
S1135770071C3378104C002B0ED101200F4D011C57
S11357802B685B699847012333709F4207D12B68CC
S113579005201B69984702E02068094B98470522B9
S11357A023685A60074B1B78002B01D1064B98479E
S11357B0F8BDC04658070020700900206807002083
S11357C0255700006E0900200157000038B5114B21
S11357D0041C02209847104B1A78022A0DD10F4D51
S11357E00F4B281C211C9847281C0E4B9847002857
S11357F009D001220C4B1A700AE0002A08D15A2C55
S113580001D101321A70094B09481B68DB699847BA
S113581038BDC0466D570000FC0D00204407002031
S1135820C9810000938100007C09002068070020E2
S1135830CD57000010B50E4B1B78012B0DD10D4C2C
S11358400D4B20689847052223685A600B4B1B7840
S1135850002B0BD10A4B984708E00A4B01201B6828
S113586000215B6998470022074B1A7010BDC0469F
S11358706007002070090020255700006E090020F1
S11358800157000068070020580700200023F0B5E6
S113589087B000930193914C914B201C9847071EAD
S11358A000D018E18F4D2E68012E24D0002E03D095
S11358B0022E00D1AFE0EEE704ABDF1D201C8A4BC3
S11358C0391C9847894B1A78012A05D11E70884BD8
S11358D088481B68DB6998473B78052B01D1043B5A
S11358E002E0042B01D1023B2B600122824B1A609F
S11358F00022824BBEE0804E3368012B02D0022B83
S11359003AD0C8E704ABD91D201C774B9847774B96
S11359101A78012A05D11F70754B76481B68DB691C
S11359209847764B04A81988C0794A1C92B21A8009
S1135930734B5854082AAED1DF79197858781A79FC
S11359405C799B793F023B43009313D10602240206
S11359500E431443301C1A1C211C6A4B9847002820
S113596005D1009A211C301C131C674CA04700234E
S11359702B60AEE0022370E0614B201C1A785D7846
S1135980161C1A7902925A790392DA799B791202D7
S11359901343009304ABD91D534B9847534B1A78C8
S11359A0012A05D11F70524B52481B68DB69984786
S11359B0564904AA07320B881278554F581CFA54DA
S11359C0544A009C128880B20880801AA04200D0F9
S11359D061E703982D020402029835430443002032
S11359E0844666463F4804330660032083430B80A5
S11359F0BA18444B281C211C984701230193B04238
S1135A0000D048E7434B211C1A88281CBA18009B75
S1135A103D4CA0473FE7384E3368012B02D0022BA0
S1135A202AD038E704ABDD1D201C2F4B291C9847D6
S1135A302E4B1A78012A05D11F702D4B2D481B6857
S1135A40DB6998472D4928780A88531C9BB20B8040
S1135A502B498854022B00D01DE7802233602B4B46
S1135A60D2001988521A00998A4201D200221A805F
S1135A701A88284B1A800EE7214B201C5E7804AB51
S1135A80D91D194B9847194B1A78012A05D11F7053
S1135A90174B18481B68DB6998471C4904AA07324E
S1135AA00B8812781A485C1CC2541A4AA4B2128891
S1135AB00C80A41AB44200D0EDE600248218BB2066
S1135AC02C6004330334A3430B800F4CB3B2011C8A
S1135AD0A0470123DEE6019807B0F0BD440700208B
S1135AE08581000040070020A58100007C0900207A
S1135AF068070020CD570000FC0600206C0700203A
S1135B0002070020F53E0000813E00003C07002013
S1135B107D09002000070020F8B50D4B071C01206B
S1135B200E1C984701230B4C0B4D23700B4B1B7819
S1135B30022B04D12B680A489B69032198472B68E0
S1135B40381C311C9B69984700202070F8BDC04662
S1135B506D570000600700206807002061070020DF
S1135B60A4A600007FB5031C2C331A783F4B041CF9
S1135B701A7080223E483F4992003F4B98470028C4
S1135B8001D140256FE03D4B206861689847231C94
S1135B903B4D08332B60A368002BF2D02369002B04
S1135BA0EFD06369002BECD0A369002BE9D0E36943
S1135BB0002BE6D0226A002AE3D0626A002AE0D0F1
S1135BC0A26A002A04D10222A18DFF329142D8D0C8
S1135BD00120011C984700202B68011C5B69984731
S1135BE02B6832201B6998472B6801215B690020D0
S1135BF098472B6823481B6998472B682248DB6920
S1135C0098472B6821481B689847214B1860002847
S1135C1001D1E22527E01F4E1F4D301CA8471F4B22
S1135C2018600028F5D0301CA8471D4B18600028C8
S1135C30EFD01C48A8471C4B18600028E9D01B4B28
S1135C409847201C1A4B9847051E0CD16B4601221D
S1135C50DC1D201C02A95242164B9847002802D191
S1135C602378392BF2D1281C04B070BD61070020C1
S1135C70440700206E070020658100004D54000099
S1135C8068070020B80B0000CD57000091560000B3
S1135C907809002059560000655600005C07002072
S1135CA0640700203558000070090020BD3E000044
S1135CB0318000009D3F000008B5054B1B6858600B
S1135CC0044B1B78002B01D1034B984708BDC046F9
S1135CD05C0700206E0900200157000008B5024B44
S1135CE01868024B984708BD5C0700202557000040
