S02B0000535441525455505F54454D504C4154455F53414D4C32315F58504C41494E45445F50524F5F42312EF3
S1130000C0400020C51C0000C11C0000C11C000031
S113001000000000000000000000000000000000DC
S1130020000000000000000000000000C11C0000EF
S11300300000000000000000C11C0000C11C000002
S1130040C11C0000C11C0000C11C000071020000A2
S1130050C11C0000C11C0000C11C0000C11C000028
S1130060C9080000D9080000E9080000F9080000E8
S11300700909000019090000C11C0000C11C00008E
S1130080C11C0000E9180000F9180000091900005B
S11300901919000029190000C11C0000C11C00002E
S11300A0C11C0000C11C0000C11C0000C11C0000D8
S11300B00000000010B5064C2378002B07D1054B37
S11300C0002B02D0044800E000BF0123237010BDC0
S11300D0A000002000000000F4C2000008B5084B96
S11300E0002B03D00748084900E000BF0748036815
S11300F0002B00D108BD064B002BFBD09847F9E735
S113010000000000F4C20000A4000020F4C20000BB
S11301100000000010B50020084B9847084CFA2155
S11301208900A047074B1860FA218900A047064BB5
S113013018600522054B1A6010BDC0462916000040
S113014039720000040000200000002010E000E0EC
S113015030B5084B1C68084A00258021490206E096
S1130160002C04D05460956013680B42FCD0013815
S1130170F6D230BD0400002010E000E00C4B1B68F8
S1130180002B10D1EFF31083002B09D172B6BFF30B
S11301905F8F0022074B1A700132074B1A7002E07E
S11301A00022054B1A70024A13680133136070472A
S11301B0BC00002008000020C0000020084B1A6882
S11301C0013A1A601B68002B09D1064B1B78002BDF
S11301D005D00122044B1A70BFF35F8F62B67047DB
S11301E0BC000020C000002008000020F0B583B04F
S11301F001AC012565700027A77025702A20211CF9
S1130200064EB0478022D200054B9A612770657074
S11302100220211CB04703B0F0BDC0463D040000DD
S1130220802800401723002A0DD18B00074A9B58D1
S1130230002B03D189008850002304E0834201D0BD
S11302401D2300E00023181C7047C046FC0D00204D
S11302501723002907D100221F2800D8034A0123AD
S1130260834013610023181C7047C04600240040DB
S113027070B50022154B1A7000231F25144E134C21
S11302801F2B19D90FE0002100E012494A619B009D
S11302909B59002B00D0984723780133DBB223709D
S11302A00F2BEDD911E0291C194001228A400021AD
S11302B049691142E7D1EFE7291C194001228A401C
S11302C0044949691142E0D1E6E770BDF80D002008
S11302D0FC0D002000240040064A117802230B4341
S11302E013700221012053681942FCD1536818424B
S11302F0F9D1704700240040064A137802218B4349
S11303001370012053681942FCD153681842F9D183
S11303107047C0460024004000B583B0184A5369B2
S1130320802189000B43536101A900230B70032032
S1130330144B98470320144B9847144A117801230F
S11303400B4313700221012053681942FCD15368F6
S1130350184209D0F8E704C38B42FCD108220C4BA5
S11303601A600C4B984709E0084A137810218B4314
S11303701370094B191C40310022ECE703B000BD97
S113038000040040FD160000951600000024004003
S113039000E100E0D9020000FC0D0020002303600E
S11303A043600122027283720132C2724372704747
S11303B0F0B583B0051C0C1C1C4B984701A9002305
S11303C04B70CB7023790B70237A8B702078184B89
S11303D0984700261F2D00D8164E07222A40920067
S11303E0E07AA37A002B01D008231843EB089B0082
S11303F0F318D96990400F279740B9430A1C024368
S1130400DA61637A002B06D0B3690122AA40151C75
S11304101D43B56106E0B3691B041B0C0122AA400D
S11304209343B361044B984703B0F0BDF902000055
S1130430F917000000240040D902000000B583B081
S113044001AB80221A700A785A704A789A708A78B6
S1130450DA70191C014B984703B000BDF91700006E
S113046010B54908402481420CD30023091A0133F2
S11304709BB28842FAD9013B9BB24024FF2B01D89E
S113048013800024201C10BDF0B55F4656464D462F
S11304904446F0B489B01C1C12AB1B78061C5E43A6
S11304A040258E4200D9C7E0251C07920C1C021C73
S11304B0002D51D1181C00210023634DA847834609
S11304C0261C002700230024029303940022002307
S11304D03F2020218C461F39009601972024644236
S11304E0041903D40D1CA540A84604E06446241A4C
S11304F00D1CE540A8460C1C8440A146141C1D1C80
S1130500A4185D41221C2B1C5E4647463E4203D084
S11305100E1C2643321C2B1C019C9C4210D802D179
S1130520009C94420CD8009C019D121BAB414D468B
S1130530029E039F35433C1C464634430295039474
S11305400138CBD20022012302980399121A8B415D
S1130550110C1B0419436CE00021012D69D1610FBA
S11305600F1CE1008846181C00210023364CA047CC
S1130570041C0D1C00239C4620339B460126634625
S11305800593B9466B461B7D069300239C460020C9
S113059000213F220094019520235B42D31803D409
S11305A0341C9C40231C04E05B469B1A341CDC4036
S11305B0231C371C9740041C0D1C24184D41201C7F
S11305C0291C0290039144463C40A2464C462340D9
S11305D05446234305D0029B039C1D1C3543281C11
S11305E0211C019B8B420AD802D1009B834206D86E
S11305F0009B019CC01AA14163463B439C46013ABF
S1130600CAD2009C019D62460599531ADB080F4A21
S1130610934208D9069A0132D2B206920A1C0132D8
S11306200592082AAED14025069A082A04D051031F
S11306301943079B19800025281C09B03CBC90462F
S11306409946A246AB46F0BD5D730000FF1F000053
S113065010B582B0041C0E4B1B78002B01D000296E
S11306600DD001A90C7011200A4B984711200A4B98
S11306709847074B5C7001221A70002006E0044B77
S11306805B78834201D01D2000E0002002B010BD41
S1130690C4000020FD16000095160000444B98424B
S11306A034D007D88423DB0598420DD0414B9842BF
S11306B01BD06FE0404B98424AD0404B984258D0F0
S11306C03F4B984266D132E0012906D0002963D01D
S11306D0022906D0032906D001E03A4867E0002049
S11306E065E0394863E0394861E0012906D0002912
S11306F054D0022906D0032906D001E0344856E03C
S1130700002054E0334852E0334850E0012906D039
S1130710002945D0022906D0032906D001E02F483C
S113072045E0002043E02E4841E02E483FE0012907
S113073006D0002936D0022906D0032906D001E0CC
S1130740294834E0002032E0284830E028482EE0F0
S1130750012906D0002927D0022906D0032906D072
S113076001E0244823E0002021E023481FE023483F
S11307701DE0012906D0002918D0022906D003293A
S113078006D001E01E4812E0002010E01D480EE0F3
S11307901D480CE000200AE01C4808E0032006E0A5
S11307A01B4804E01B4802E01B4800E01B4870475C
S11307B0000800420004004200100042000400430C
S11307C0000C0042030005000300060003000700BC
S11307D00300010003001E0003001F0003000900C2
S11307E003000A0003000B000300110003001200C1
S11307F00300130003000D0003000E0003000F00AC
S1130800030017000300180003001900030004008C
S1130810030008000300100003000C00030016008E
S113082030B587B00C4B6A4632CB32C232CB32C2BF
S1130830009B834206D001239A00694652588242A3
S113084003D100E00023D8B203E00133062BF3D137
S1130850002007B030BDC046608500007047C04628
S1130860F0B50A4B1B78002B0CD1094F094E0A4DE9
S11308700024DE515A1914600433182BF9D10122D3
S1130880024B1A708000024BC150F0BDC60000201C
S1130890C80000205D0800003C0E002010B582B0A6
S11308A0041C684605490622054B9847201C054B45
S11308B098476B46185602B010BDC04678850000B4
S11308C01B7400002108000008B5024B1B680020BF
S11308D0984708BDC800002008B5024B5B6801209A
S11308E0984708BDC800002008B5024B9B68022049
S11308F0984708BDC800002008B5024BDB680320F8
S1130900984708BDC800002008B5024B1B690420A5
S1130910984708BDC800002008B5024B5B69052054
S1130920984708BDC8000020F0B55F4656464D46BE
S11309304446F0B491B0061C0C1C151C3160081C14
S1130940C24B9847021E052A03D0071C1237031C0A
S113095001E01827012321680520C90700D56EE1AD
S113096021681730890700D569E1052A06D1B849FD
S11309700A6A1B3898401043086205E0B449CA6902
S1130980012098401043C8610FA92D239846EB5CC1
S11309900B70FFB2381CAF4B9847381CAE4B9847CE
S11309A04346E85C0021AD4B9847EB7A73712423EE
S11309B0EB5CB3712523EB5CF371EB7E33722B7F1D
S11309C0737233689A46181CA04B98471230002261
S11309D00E2306A98C4663441A802B8A99468023E9
S11309E0DB01994519D004D880239B0199450AD08D
S11309F006E1C023DB0199450AD080231B029945F7
S1130A0000D102E1FCE0102398460F3B079300E17C
S1130A1008239846073B0793FBE02B689B46EB684B
S1130A2002936B6903932B7E04932623EB5C05935B
S1130A306A680692002A16D080235B059A4239D14F
S1130A402723EB5C002B39D12B6A9846C0B2844B28
S1130A509847011C40460E2206AB9C466244814BDB
S1130A609847031C27E0082398460023079327236D
S1130A70EB5C002B0CD043460093286AA96A0E2233
S1130A8006AB9C466244079B774FB847031C12E0B1
S1130A902B6A1F1CC0B2724B9847011C434600933B
S1130AA0381C0E2206AB9C466244079B6E4FB84727
S1130AB0031C00E00023181E00D0C0E06B7E002B56
S1130AC002D0AB7E524693733268069FD369002BE3
S1130AD0FCD10E3306AA944663441B885246938184
S1130AE0029B5A461343039A13433B434A46134318
S1130AF0049A12021343059A57071F432723EB5CFA
S1130B00002B01D104331F432B7F59026A7E9302C9
S1130B100B436A7F120213432422AA5C5204134338
S1130B202522AA5C12041343E97A19432B89FF2B6B
S1130B3004D0802252041743194305E0EB7E002BB6
S1130B4002D08023DB041F432C23EB5C002B03D156
S1130B50464B9B789B0701D580231F433268D3699A
S1130B60002BFCD1534659603268D369002BFCD169
S1130B7053461F600EAB80221A7000225A70DA703E
S1130B809A702B6B0A936B6B0B93AB6B0C93EB6BA5
S1130B9002930D9300270EADF9B2BB000AAA985830
S1130BA0002802D1201C324B9847431C05D02870E2
S1130BB0000CC0B2291C2F4B98470137042FEBD1EE
S1130BC00023F36033617361B361F3613362B36231
S1130BD073620022F385B3853033F2540133F25447
S1130BE00133F2540133F2543068184B9847041C13
S1130BF02149224B9847A400214BE65000201EE0D7
S1130C00102398460023079303E003239846002308
S1130C1007932B689B46EB6802936B6903932B7EC7
S1130C2004932623EB5C05936A680692002A00D19C
S1130C301DE780235B059A4200D101E73EE711B02E
S1130C403CBC90469946A246AB46F0BD2108000044
S1130C5000040040FD160000951600005106000037
S1130C6021170000610400008904000000200041F5
S1130C709D060000F91700001D0E00006108000029
S1130C803C0E002010B50368C4791C22002C0DD042
S1130C90C08D80B2173A002808D1DA69002AFCD145
S1130CA0198502211A7E0A42FCD00022101C10BDB4
S1130CB010B5046882791C23002A33D0828D92B245
S1130CC0173B002A2ED1227E52072BD5E369002B35
S1130CD0FCD1638BDBB29A0621D09A0703D5022399
S1130CE0638318331EE05A0703D5042363831A333E
S1130CF018E0DA0703D501236383123312E0DA061E
S1130D0005D5628B10231343638342230AE09B06B9
S1130D1005D5628B202313436383412302E0238D93
S1130D200B800023181C10BDF8B5061C0C1C151CE8
S1130D3007680A4B9847F38D9BB2002B03D0084BEE
S1130D409847052009E0F585054B9847B4620522CC
S1130D503323F254323BBB750020F8BD7D01000003
S1130D60BD010000F8B5041C0D1C161C07680F4BD0
S1130D709847A38D9BB2002B03D00D4B98470520B9
S1130D8013E0A6850A4B9847656205223223E25494
S1130D902E3BBB75237A002B01D02023BB75637ACD
S1130DA00020002B01D00823BB75F8BD7D01000095
S1130DB0BD010000931C9B00C3185960012393409C
S1130DC01A1C3021435C1A434254704708B501226F
S1130DD0014B984708BDC046650D000010B51723A8
S1130DE0002A06D0C4790533002C02D0024B984760
S1130DF0031C181C10BDC046290D0000002902D098
S1130E00012904D007E03223C05CC0B204E03323DC
S1130E10C05CC0B200E017207047C046F8B580003F
S1130E20654BC5582C68E369002BFCD1237EA67D55
S1130E301E403123EB5C3022AF5C1F40F30722D508
S1130E40EB8D9BB2002B1CD0AA6A1378DBB2511C29
S1130E50A9626979012901D09BB204E051780902A1
S1130E600B430232AA62DB05DB0D2385EB8D013BCC
S1130E709BB2EB85002B06D1013323750133A37597
S1130E8001E001232375B30709D50223237500224A
S1130E903133EA54FB0702D5281CEB6898477307E3
S1130EA06AD5AB8D9BB2002B64D0638BDBB21A077F
S1130EB002D43F22134001E037221340002B37D0E5
S1130EC09A0707D51A223223EA54628B303B134324
S1130ED0638327E05A0707D51E223223EA54628B24
S1130EE02E3B134363831DE0DA0707D51322322315
S1130EF0EA54628B313B1343638313E0DA0607D56C
S1130F0042223223EA54628B223B1343638309E077
S1130F1020221A4206D021323223EA54628B123B39
S1130F20134363837B0727D5281C6B69984723E009
S1130F30238DDB05DB0DDAB2696A0A706A6A511C1B
S1130F4069626979012904D11B0A53706B6A013300
S1130F506B62AB8D013B9BB2AB85002B0CD1043390
S1130F60237500222E33EA54BB0705D5281C2B69B0
S1130F70984701E004232375F30607D5102323754E
S1130F802376FB0602D5281CEB699847B30607D5E0
S1130F902023237523763B0702D5281CAB69984789
S1130FA0330707D5082323752376BB0602D52B6A9E
S1130FB0281C9847F8BDC0463C0E002008B50828F8
S1130FC003D880001C4B1B589F46002032E01B4B6B
S1130FD018692FE01A4B187D0007800F0130194B58
S1130FE0584327E0154B586924E0144B1B68022032
S1130FF018401FD0124980225200CB681342FCD003
S11310000E4B1B685B0714D500200F4B98470B4B06
S11310109B681B041B0C58430CE02823084AD35C30
S113102000209B0706D5054BD86803E0802000020A
S113103000E0064808BDC04680850000E0000020AE
S1131040000C004000093D0021170000006CDC0288
S113105030B50C4C237D857841780078032210400C
S113106080000932934303430B3A114089013F3214
S113107093430B431A1CE9017F2313400B4323754D
S113108030BDC046000C0040F0B55F4656464D46A4
S11310904446F0B4254E73699C46457803785A4219
S11310A05A41904683789A46C378477A027A93469F
S11310B0847A42681E48426101204246920090466A
S11310C004229146624649468A4394464246614612
S11310D00A4394460340DB00082290466246414698
S11310E08A431343514601400901102293430B43A1
S11310F05A460240920140218B4313430740FF01AB
S1131100802293433B43793A15402D02094F3B40DB
S11311102B4304402003084C1C40044374613CBC32
S113112090469946A246AB46F0BDC046001000402A
S1131130E0000020FFF8FFFFFFEFFFFF10B5837A08
S11311409B061A0C83899B059B0D13431A4C636001
S1131150C18883881943437A027A13430B43427844
S1131160D201134382789201134323600378042B42
S11311700FD1837B9B06428A1343191C038A1B04E9
S11311800E4A13400B43A360216804230B432360DE
S113119011E0202B0FD1837B9B06428A1343191C39
S11311A0038A1B04054A13400B43034A93601368E4
S11311B003490B43136010BDE00000200000FF034F
S11311C024040000082803D88000294B1B589F469C
S11311D017204BE0274A117D02230B43137500208F
S11311E044E0254A916902230B43936100203DE0CA
S11311F0204A118A02230B431382002036E01E4A40
S1131200516902230B43536100202FE01B490B68F3
S1131210022213430B60174B1A83191CFE32CB684E
S11312201342FCD0154A9168124B19625268DA6174
S113123000221A83191C0132FF32CB681342FCD0FE
S11312400E4B1B689BB20B4A138300200EE0094926
S11312502822885C022303438B54081C3821263A35
S1131260435C1342FCD1002000E000207047C046DC
S1131270A4850000000C004000100040E0000020A5
S1131280082832D880001A4B1B589F46194A137DF0
S113129002218B431375002028E0174A9369022129
S11312A08B439361002021E0124A138A02218B436D
S11312B0138200201AE0104A536902218B435361C0
S11312C0002013E00D4B1A6802218A431A601B6840
S11312D09BB2084A1383002008E0064928228B5C4D
S11312E0022083438B54002000E017207047C0463F
S11312F0C8850000000C004000100040E000002001
S1131300F0B5474680B48CB0802252006F4B9A608F
S1131310FD3A6F4B9A606F494B681B3293431A3AFC
S113132013434B608023DB059B78022B09D0802379
S1131330DB05033A9A7101329A701A1C9379002BD7
S1131340FCD009A80023037080221202426083703B
S11313500122C270837204214170437202725E4B97
S1131360984705205D4B98475D490122CB681A4296
S1131370FCD001A901234B6000244C700C724C7208
S113138003250D700020574B98470620564B98476D
S11313906B465C701D709C706846544B98470620E1
S11313A04E4B984749491022CB681A42FCD001A9F8
S11313B001234B6000244C7005330B700C724C728B
S11313C00020484B9847414A117D80230B431375F5
S11313D004AB00229C80DC801A725A729A703F21FE
S11313E099813B3919705A70414B1B689B0E3F2BF6
S11313F000D1203B04A88372B723DB00438203237C
S113140083731C3303823B4B98473B4B984701AC97
S113141001260296002565702572657205232370E6
S11314200120211C2F4B984698470120334FB84781
S11314306660657025726572072323700320211C82
S1131440C0470320B84726700020211C2C4B984726
S113145000202C4B98470720204B98471B49D0224B
S11314601201CB6813409342FBD1274C0123A37193
S11314706371237101A94B6000224A704A720732DA
S11314800A700B720020174B984700201B4B98479B
S113149000201E4B98472179C9B21D4B98471D4B1C
S11314A098420ED88023DB059B78002B09D080233B
S11314B0DB0501229A7100229A701A1C9379002B81
S11314C0FCD00CB004BC9046F0BDC046000C0040FB
S11314D0001400400040004189100000C5110000C4
S11314E0001000403D150000811200005110000062
S11314F0206080003D11000019150000E91500006E
S1131500FD16000095160000000400402916000096
S113151039720000001BB700064A516940230B438F
S113152053610122044B1A70191C0B781342FCD12D
S11315307047C046000400400018004070B5041C09
S11315400D784B78002B02D08023DB001D434B7AAF
S1131550002B02D080231B011D434A68012A17D99E
S1131560531E1A420FD1022A06D902230020013049
S11315705B009A42FBD800E0002080235B011D43FE
S11315800004054304E0120480239B001A4315431E
S11315900B7A002B02D080239B011D430426A64016
S11315A00D490E4A4B6813401E42FBD10C4B984721
S11315B0A400094B9C466444206A80235B001840C5
S11315C0284320626146054A4B6813401E42FBD102
S11315D0044B984770BDC04600180040FC0700004B
S11315E07D010000BD01000010B5041C04228240EE
S11315F009480A4943680B401A42FBD1084B9847F3
S1131600A400054B9C466444236A80225200134381
S11316102362044B984710BD00180040FC070000EB
S11316207D010000BD010000F8B5041C04228240C5
S11316301248134943680B401A42FBD1114B984797
S11316400E4F0834A400E3590F2018400E4B98475E
S1131650061CE559ED04ED0FE459240C0B4B984797
S1131660002D07D1012C07D9301C211C084B9847A9
S1131670061C01E00134E640301CF8BD00180040AF
S1131680FC0700007D010000BD0F0000BD0100004B
S11316903972000010B5041C084B9847A400084B8D
S11316A0E0188022815840230B4383508021403A24
S11316B043581A42FCD0034B984710BD7D010000EB
S11316C000180040BD01000010B5041C084B9847E9
S11316D0A400084BE0188022835840218B43835098
S11316E04031403A43581A42FCD1034B984710BD4D
S11316F07D01000000180040BD01000038B5041C45
S11317000D1C054B98472B780F2213402034A4005E
S1131710024AA35038BDC046C91600000018004054
S113172010B5041C064B98472034A400054BE3581D
S11317300F241C40044B9847201C044B984710BDB1
S11317407D01000000180040BD01000029160000C2
S113175030B5D378002B1ED11478802C04D0240605
S113176080235B021C4300E0002453780225AB4332
S11317700AD19378002B03D180239B021C4302E0FF
S1131780C023DB021C4341605378013B012B12D878
S1131790184B1C400FE041600B041B0CA024E40513
S11317A0234383620B0CD024240623438362D3781F
S11317B0002B18D01CE00B041B0CA025ED052B43BB
S11317C0234383620B0CD0252D062B4323438362D2
S11317D0D378002B0CD1630305D59378012B01D169
S11317E0816100E041615378013B012B00D88160A5
S11317F030BDC046FFFFFBFF08B5031C0A1CC1092E
S11318000020002904D15809C00105498C466044D0
S11318101F210B401E399940024B984708BDC04612
S113182000280040511700007047C04608B5054B1A
S11318309847054B9847054B9847054B9847054BE8
S1131840984708BD01130000ED01000029180000AD
S11318501903000029180000931C9B001950022A48
S113186004D1027E1023134303760CE0032A04D12F
S1131870027E20231343037605E0012393401A1CC0
S1131880037E1A43027600207047C04638B58000B4
S1131890144BC5582B689C7A2B7E1C406B7E1C40D5
S11318A0E30705D5281CAB68984701232A6893727F
S11318B0A30705D5281CEB68984702232A6893726E
S11318C0E30605D5281C2B69984710232A689372D0
S11318D0A30605D5281C6B6998472B6820229A72A9
S11318E038BDC046540E002008B50020014B98476F
S11318F008BDC0468D18000008B50120014B98476B
S113190008BDC0468D18000008B50220014B984759
S113191008BDC0468D18000008B50320014B984748
S113192008BDC0468D18000008B50420014B984737
S113193008BDC0468D18000030B587B001A90C4B16
S11319400A1C32CB32C212CB12C2019B834206D094
S113195001239A0001A95258824203D100E00023D6
S1131960D8B203E00133052BF3D1002007B030BD1A
S113197014860000F0B5474680B48EB0051C0E1CDA
S1131980171C081CAA4B98478046AA4C211C1431EA
S11319900CA80522A84B984702A9231C1C330A1C37
S11319A013CB13C213CB13C213CB13C21B68136024
S11319B00023AB60EB602B616B612B766B76434647
S11319C09A009E4BD5502E603423FB5CAB76FB789B
S11319D0082B04D117204246D20700D523E12B71EE
S11319E033680520DB0700D51DE1F37A17309B0728
S11319F000D518E133689B0700D514E13B7C002B2C
S1131A000AD001A901238B700022CA703A7E0A70A1
S1131A104B70387D8A4B98473B7F002B0BD001A934
S1131A2001238B700022CA707A6A0A704B703B6A79
S1131A30D8B2834B984743465A0002A9531C9B00D3
S1131A4058584346DB005B58D9B204291BD88B0095
S1131A507C49CB589F467C494B691843486112E046
S1131A6079498B69184388610DE07749CB6918433C
S1131A70C86108E074490B6A1843086203E07249BC
S1131A804B6A18434862FB78082B29D1434601333B
S1131A90042B25DC02A9D31C9B005858931C9B00E3
S1131AA05B58DAB2042A1BD89300684AD3589F467D
S1131AB0654A53691843506112E0634A93691843B5
S1131AC090610DE0604AD3691843D06108E05E4A32
S1131AD0136A1843106203E05B4A536A1843506266
S1131AE03B786A4613700CAB42469C5C201C6946EA
S1131AF0574B9847201C574B9847FA79FB78134368
S1131B00BA8813437A7A002A02D0802252021343FD
S1131B10BA7A002A02D0802292021343FA7A002A67
S1131B2002D08022520313433A7B002A02D080223F
S1131B3092031343B978C9017A7892011143194386
S1131B402A681369002BFCD131602A681369002BC1
S1131B50FCD1BB793373797B4B1E99418900BB7BE4
S1131B60002B01D0012319432A681369002BFCD1EF
S1131B70FF333371002904D02A681369002BFCD188
S1131B8071713B7A73732A681369002BFCD12B792A
S1131B90042B05D0082B33D01720002B43D11CE095
S1131BA01369002BFCD12833FB5C33752A68136955
S1131BB0002BFCD12933FB5CF3762A681369002BD4
S1131BC0FCD12A33FB5C33772A681369002BFCD1E0
S1131BD02B33FB5C7377002025E01369002BFCD1C9
S1131BE03B8DB3822A681369002BFCD17B8DB383B0
S1131BF02A681369002BFCD1BB8DF383002012E00B
S1131C001369002BFCD1BB6A73612A681369002B2A
S1131C10FCD1FB6AF3612A681369002BFCD13B6B8E
S1131C2033620020FFE70EB004BC9046F0BDC0460E
S1131C3039190000148600001B740000540E0020A3
S1131C40F9170000EC850000000400400086000045
S1131C50FD1600009516000002681369002BFCD1E4
S1131C600379042B05D0082B0BD01720002B0BD1A4
S1131C7003E0C9B21175002006E089B29182002008
S1131C8002E051610020FFE77047C0460368D97A3B
S1131C901522890712D41A6892070AD51A69002AEC
S1131CA0FCD11A6802218A431A6001680A69002A71
S1131CB0FCD1196801220A431A600022101C7047E3
S1131CC0FEE7C04610B51D4B1D4A9A4203D01D4B7A
S1131CD01A4A9A4204D31C4B1C4A9A4210D31EE05F
S1131CE01B4A184B03339B1A9B0801339B000022A9
S1131CF0124813498C58845004329A42FAD1EAE7C4
S1131D00144A114B03339B1A9B0801339B00002296
S1131D100E4800211418216004329A42FAD10E4A66
S1131D20FF210E4B8B4393600D4A516880230B4374
S1131D3053600C4B98470C4B9847FEE7000000207B
S1131D40F4C20000A0000020C0200020A000002059
S1131D5004000020A400002000ED00E000000000CA
S1131D6000400041B1730000DD380000F0B5474683
S1131D7080B40C1C9046002810D1002A0ADD8F186C
S1131D80094E0A4D3068211C2B6898470134BC4227
S1131D90F8D101E000239846404601E0012040428A
S1131DA004BC9046F0BDC046700E0020680E0020B2
S1131DB0F0B5474680B40138022815D8002A10D05F
S1131DC0151C0E1C00240C4B98460C4F43461868F7
S1131DD0315D3B689847002809DB0134A542F5D101
S1131DE000E00024201C04E00120404201E0012026
S1131DF0404204BC9046F0BD700E00206C0E0020E2
S1131E00031C064A1268002A02D10549034A1160DC
S1131E10024A1068C31813607047C046F8000020D7
S1131E20C0400020012040427047C04680239B01EF
S1131E304B6000207047C046012070470020704767
S1131E400020704700207047C078002800D0E220AE
S1131E507047C0460020704708B50078002806D0B7
S1131E600348044B98470448044B9847E22008BDB4
S1131E70108800005D750000148800003D740000A7
S1131E8010B5031CC078002809D01C1C0448054B5D
S1131E9098472188A2780448044B9847E22010BD53
S1131EA0108800005D750000288800003D74000063
S1131EB0F8B5041C194B9B2292009D18012700269B
S1131EC0181C1A1C563A11882288914219D11A7882
S1131ED0052A01D0082A01D1077012E0072A0FD879
S1131EE092000F498A5897461E700E4A1278002AAB
S1131EF007D00C4A1278013AD2B20A490A7000E0BB
S1131F0006707C33AB42DBD10748084B9847E17835
S1131F1022880748074B98470020F8BDEA0E0020A6
S1131F2058860000F8100020108800005D7500003D
S1131F30608800003D74000070B5061C0188264BC3
S1131F4000241A898A4204D11A1C5E321278062AA5
S1131F502AD00134E4B27C33052CF2D135E01E4999
S1131F6063011A1B92008A181576131C5833072232
S1131F709A711A481A4B98471A481B4B9847E225FE
S1131F8027E01648164B98471848174B98477C2368
S1131F905C43114B1B191A1C583208219171F278B9
S1131FA01A75B2781A7614E0B578002DD7D1E8E71F
S1131FB00A4E301C0A4DA8470C480B4CA047301C55
S1131FC0A8470B48A047E22503E0B578002DC6D109
S1131FD0EEE7281C70BDC0468C0E0020108800005F
S1131FE05D750000908800003D740000A488000026
S1131FF0C888000010B5011C154B1B78DBB2132BED
S113200012D8134C2378DBB29800C018C000C31850
S11320101048C0182922104B98472378237801339D
S1132020DBB22370002012E00C480D4B98470D489A
S11320300D4B98470D4B9847031CE220002B06D00C
S11320400648074B98470A48074B9847E22010BDBB
S1132050DC050020841100201B740000108800009F
S11320605D750000F08800003D74000045460000E6
S113207028890000F8B54F464646C0B4061C45887A
S11320803A4A0023DCB2191C1089A84210D1101C52
S11320905E30007803280BD15B015B1A9900334B47
S11320A05B18583305229A713579002D34D006E037
S11320B00134E4B201337C32052BE3D128E063011F
S11320C01C1BA400294B1C1958340423A371284851
S11320D0284B98472848294B984770881321284B48
S11320E09847051E3DD02248224B98472548234B4C
S11320F09847E22535E01E4E301C1E4DA847224865
S11321001E4CA047301CA8472048A047E22528E0E1
S11321103379002BEFD0D2E71548164B98471A486D
S1132120164B98473278114F7C235C433B199946F0
S11321301A7532791A7648463630311C223110220B
S1132140134B9846984748464630311C3231172283
S1132150C04748461A30B11D1C22C04705225E23E1
S1132160FA54281C0CBC90469946F8BD8C0E0020ED
S1132170108800005D750000408900003D74000077
S113218065460000608900007C890000A889000081
S11321901B74000010B50088012101227823024C31
S11321A0A047002010BDC04685460000F0B5574644
S11321B04E464546E0B484B0041C06886C490A1CAB
S11321C00023DDB21F1C1089B04214D1101C5E30F4
S11321D0007802280FD1664A5B01DB1B9B00D318F1
S11321E05833043098716B015B1B9B00D3181A7D24
S11321F0D30705D41BE001337C32052BE1D11EE06B
S1132200E378002B13D020886901491B8D005849BD
S113221049191A31574B9847002800D1A2E0564873
S1132220564B98475648574B9847E2209AE06B0123
S11322305D1BAD004E4B5D1958350223AB712588EB
S11322400022D3B2161C0889A8420DD1081C5E30A6
S11322500078022808D15201921B9600444A921930
S113226058320321917105E00133DBB201327C3134
S1132270052AE6D101AA02211172E17891700121A7
S11322805170033111700021D1701F1C5A01D21AF0
S113229092003749525C022A04D101AA03219171A8
S11322A0D17144E001AA01219171D1713FE0C84785
S11322B0434618403070C84743461840B07401364E
S11322C0AE42F4D153467033294A9E182E4B994698
S11322D00F239846C8474346184028700135B54235
S11322E0F8D1294B98477B01DB1B9B00204AD3186C
S11322F01A1C70321080783310229A7020887A0168
S1132300D71BBF0060371A4ABA1801A900231F4C13
S1132310A047002826D001AB00229A705A701648B4
S1132320164B98471A48174B9847E2201AE001AA1F
S11323301021517111717A01D21B92000C498A1833
S1132340127E402ADAD15A01D31A9B009A461E1CE7
S113235060367618554668356D180B4B99460F2331
S11323609846A4E704B01CBC90469946A246F0BD2A
S11323708C0E0020ED540000108800005D750000F4
S1132380D88900003D74000071750000B55100004B
S1132390F0890000F0B557464E464546E0B484B097
S11323A08046048849490022D3B2151C0889A042FA
S11323B00DD1081C5E300078022808D15201521B4E
S11323C09500424A521958320321917105E00133B4
S11323D0DBB201327C31052AE6D101AA0221117255
S11323E001399170517000211170D1701F1C5A0174
S11323F0D21A92003549525C022A04D101AA03215F
S11324009171D17141E001AA01219171D1713CE036
S1132410C84730402870C8473040A8740135A542E9
S1132420F6D153467033294A9D18294B99460F26F5
S1132430C847304020700134AC42F9D1244B98474E
S11324407B01DB1B9B00214AD3181A1C70321080BD
S1132450783310229A70434618887A01D71BBF003C
S113246060371A4ABA1801A900231A4CA047002859
S113247025D001AB00229A705A701748174B984721
S11324801748184B9847E22019E001AA102151710E
S113249011717A01D21B92000C498A18127E402ACB
S11324A0D9D15A01D31A9B009A461D1C60356D1868
S11324B0544668346418064B99460F26A8E704B0BE
S11324C01CBC90469946A246F0BDC0468C0E002026
S11324D071750000B5510000108800005D750000A2
S11324E01C8A00003D740000F0B585B0051C02A8EC
S11324F040490622404EB04701AC201C291C04224E
S1132500B047E378002B63D13C483D4B98473D48A6
S11325103D4B984700243D4EE7B23D48B047021E6C
S11325201AD1364F381C364EB0473A48364CA0477D
S1132530381CB0473848A04728881321374B9847A0
S1132540031CE220002B52D02C482D4B98473448D2
S11325502D4B9847E2204AE03038C3B2092B08D803
S113256002ABE254101C2F4B98470134062C28D0A0
S1132570D2E7052FD1D924E02048214B98472A4897
S1132580214B98472BE002ABE05CB0470134062CAA
S1132590F9D1288801AB997802AA244B98470028DE
S11325A025D01648164B98472148174B98470020CA
S11325B01DE01248124B98471E48134B98470020C1
S11325C015E00E480E4B98471B480F4B984706E002
S11325D001AB5A8880235B009A4203D1CCE70024E4
S11325E0104ED0E701AB9B78012BE2D0002005B060
S11325F0F0BDC046808700001B74000010880000F6
S11326005D750000448A00003D740000FD30000048
S1132610307500006C8A0000788A0000654600006E
S113262060890000717400008C8A0000C1530000AE
S1132630C48A0000DC8A0000F88A0000F8B5061C91
S11326400188304B0024E5B21A898A4216D11A1C3B
S11326505E321278012A11D92A496201121B9200B2
S11326608A185832062393716B015B1B9B00CB18AD
S113267070331A8873889A4213D106E00135EDB29B
S113268001347C33052CDED10BE0301D6901491B7C
S113269089001C4B5918723108221B4B984700289B
S11326A015D01A4F381C1A4EB0471A481A4CA04776
S11326B0381CB0471948A0476B015D1BAD00114B96
S11326C05D1928890521164B9847E22018E0FF235D
S11326D01C4030880B4B6201111B89005918097D7D
S11326E0141BA4006034E31801220E4CA0470028F8
S11326F006D00648064B98470B48074B98470020DE
S1132700F8BDC0468C0E0020FD7300001088000048
S11327105D7500000C8B00003D740000448B0000CC
S113272065460000B15500009C8B000030B5002ABE
S113273047D0062947D88900284B5B589F46284B29
S113274005240AE0274B012407E0274B052404E075
S1132750264B012401E0264B0524002816D11968D4
S113276000290BD106E01D1C0433181F0068002843
S113277006D100E01D1C2A6001212CE00433002155
S11327800131C9B2A142EED3002124E00021012885
S113279021D1196891420CD106E01D1C0433181F85
S11327A00068904207D100E01D1C00232B6001212A
S11327B011E0043300210131C9B2A142EDD300215B
S11327C009E0002107E0002105E00A4B0524C4E7E5
S11327D0094B0124C1E7081C30BDC04678860000BF
S11327E0780E0020740E0020FC100020C416002077
S11327F0101100202411002080110020F0B547465C
S113280080B490B0051C6A4A00231360536093603F
S1132810D3601361674A136053609360D36013619C
S1132820654A136053609360D3601361634A136015
S1132830634A1360634A136053609360D360136107
S1132840614A1360614C9B239B009846A044604FEF
S11328504026201C00217C22B847231C5E33002222
S11328601A7026767C344445F3D15A4B1A705A4C6C
S11328705A4B63605A4B236001232C32A354013218
S1132880A354584BA360584BE360584B2361584BF7
S11328906361584BA361584BE361584B2362584B17
S11328A06362584BA36201200121574B9847574854
S11328B0574B98475748584B9847201C574B9847B5
S11328C000280BD0514E301C514DA8475448524C4F
S11328D0A047301CA8475348A047FEE7002000212A
S11328E0514A524CA04700200221514AA047514866
S11328F00921514B9847002805D04448444B984738
S11329004E48454B984704A84D49083107224D4B82
S11329109847002D0CD104A84B4B984704AD0028D0
S113292006D03A483A4B984748483B4B984704AD41
S11329303648374B9847A9796A792B79E87800901B
S1132940A878019068780290287803904048324C27
S1132950A04706AC0F2323703E4B638007A8291CB5
S11329600722384B98470023E37623776377A377CE
S1132970E3772384638480239B00A384201C364B49
S11329809847002805D02148214B98473348224BCB
S11329909847281C324B9847002805D01B481C4BED
S11329A0984730481C4B984710B004BC9046F0BD83
S11329B01011002024110020780E00208011002026
S11329C0740E0020FC100020C41600208C0E002081
S11329D02D740000F81000204C110020E2040000C7
S11329E0FC000020D5370000E1370000013800006A
S11329F02538000045380000513700003537000005
S1132A0089370000C9370000C9360000108800006B
S1132A105D750000BC8B00003D740000C9420000DD
S1132A20D48B0000F48B0000C48700002D27000025
S1132A309C870000308C0000454100003C8C000065
S1132A40808700001B740000A1410000548C00002A
S1132A506C8C0000983A0000C5410000A48C000072
S1132A6031440000C88C000008B501210122064B46
S1132A709847002806D00548054B98470548064B5B
S1132A809847E22008BDC046695400001088000041
S1132A905D750000048D00003D740000F0B55F46D4
S1132AA04E464546E0B49AB0051C837A9946002BFD
S1132AB000D0CEE0724E301C724FB847A9796A79C3
S1132AC02B79E8780090A8780190687802906E4895
S1132AD06E4CA047301CB84729896D48A0476D4803
S1132AE0291C12226C4B984704956C48291C072218
S1132AF06B4B9847002802D02B78022B04D0694EE8
S1132B000024674B9B462AE006A800215022664B0E
S1132B109847664F00230BE0591C147806A8C45448
S1132B2001328BB2B342F7D17C37331E502B04D021
S1132B301E1C1036B6B23A1CEEE70520291C06AA64
S1132B405B4B98478146002800D191E04C484D4B9F
S1132B50984758484D4B9847E223994688E0E7B296
S1132B600594301C04990722D847002809D1059AF6
S1132B7053019B1A9A004B4B9B18583302229A71AB
S1132B8041E001347C36052CE9D16CE05E23454AF2
S1132B90D35C002B10D117E039483A4B9847464B89
S1132BA01978C9B24548394B984728891321444BB1
S1132BB09847E22399465BE0424A0123DFB21C1C9A
S1132BC01178002919D101E00024002763019846F7
S1132BD0181B8000334E8019291C12222E4B984753
S1132BE0354A13780133DBB2137043461B1B9B0039
S1132BF0F318583302229A7105E0791CCFB20133DD
S1132C007C32052BDAD12548291C0722244B98470E
S1132C1000280CD17B01DB1B9B00224AD318052220
S1132C209A741E4B00221A609A809A7120E07B01EC
S1132C30DB1B9B001B4AD3180A229A74174B0021F2
S1132C401960998099710A2A12D128891E4B9847D4
S1132C500EE00B480B4B9847A97A1C480B4B98473E
S1132C600023994604E0144B1B78052B8ED193E77F
S1132C7048461AB01CBC90469946A346F0BDC046CF
S1132C80108800005D750000248D00003D74000074
S1132C90688D0000381100201B740000E00500203E
S1132CA0FD7300008C0E00202D740000D20E002055
S1132CB0C5460000808D0000F8100020A48D00009F
S1132CC065460000660F0020692A0000E08D0000C0
S1132CD0F0B5474680B40378002B66D13B4D002401
S1132CE0461C3B4F301C291C1022B84700284BD0EF
S1132CF00134E4B27C35052CF4D156E05E23354A28
S1132D00D35C002B10D117E03348344B9847344B35
S1132D101978C9B23348344B9847344B1889132176
S1132D20334B9847E2204EE0324A0123DCB21D1CAB
S1132D30117800291CD101E000250024254B984678
S1132D406E01771BBF004744381C284912222A4BC6
S1132D509847234A13780133DBB2137058370223A0
S1132D60BB71751BAD002B1C43440A229A7421E0ED
S1132D7001337C32052BD9D1002024E01B4B188968
S1132D801E4B984700201EE0124963011A1B920053
S1132D908A18101C5830022585710A209074101C62
S1132DA012491222144B984704E00D4B1B78052B53
S1132DB0A4D1A9E763011C1BA400064B1C19A37C26
S1132DC00A2BDBD0002004BC9046F0BDD20E0020BC
S1132DD0FD7300008C0E0020108800005D7500005B
S1132DE0F8100020A48D00003D740000381100206C
S1132DF065460000660F00201B740000692A00006D
S1132E00F8B50D1C3A286CD88300394AD3589F462C
S1132E1084000026374FBB59002B04D01B59002BCC
S1132E2001D0281C98470436142EF4D15FE01338DF
S1132E30C4B2A4000026304FBB59002B04D01B5948
S1132E40002B01D0281C98470436142EF4D14EE0F0
S1132E501D38C4B2A4000026284FBB59002B04D04F
S1132E601B59002B01D0281C98470436142EF4D18A
S1132E703DE02738C0B2224B1B68002B37D08000BE
S1132E80C358002B33D0081C984730E02D38C0B20B
S1132E901C4B1B68002B2AD08000C358002B26D063
S1132EA0081C984723E03638C4B2A4000026164F05
S1132EB0BB59002B04D01B59002B01D0281C984768
S1132EC00436142EF4D112E03838C0B20F4B1B680C
S1132ED0002B0CD08000C358002B08D0081C984746
S1132EE005E00B4D281C0B4CA047281CA047F8BD3F
S1132EF0948600001011002024110020780E002078
S1132F0080110020740E0020FC100020C416002044
S1132F10108800005D75000010B5084808491422A7
S1132F20084B9847041E05D1044B18780449064BF6
S1132F30984700E0E224201C10BDC0467C1100200C
S1132F40B8140020C93A0000012E000070B590B0FA
S1132F5008AC0A23237009266670222068441149AC
S1132F600922114DA84700236A4613701533537084
S1132F70E672EA3323732D2068440C491031082289
S1132F80A847201C15216A460023094CA0470028A5
S1132F9005D00848084B98470848094B9847002033
S1132FA010B070BD308C00001B74000080870000DE
S1132FB085440000108800005D750000088E000044
S1132FC03D74000070B582B0051C0E1C00226B46D7
S1132FD0DA80064C281C6B46991DA0470028F9D1BD
S1132FE06B4606331B88337002B070BDB10C000011
S1132FF070B5051C8CB2034E281C211CB047002858
S1133000FAD170BD850C0000F0B591B08023DB05CA
S1133010009300230193FF2269460A8100228B72E8
S1133020CB720124242168464454013144540131B3
S11330304354013143540A930531435401314354F9
S113304005930382C376027602774276132383764E
S1133050427780235B0303931A4B0C931A4B0D9313
S113306001235B420E930F93E1235B020893174DF8
S1133070174B1D60174A184B1A60184A184B1A60F0
S1133080281C18496A46184B9847184F3B6898689B
S11330900021174EB0473B6858680021B0472E689E
S11330A0301C144B98471F2318408440124B1C605B
S11330B02A68D369002BFCD132680233134333608E
S11330C011B0F0BD0200160002001700E805002050
S11330D0700E0020F12F00006C0E0020C52F0000A0
S11330E0680E0020000C0042290900009C0000200A
S11330F0E97500009D08000000E100E0F0B583B030
S1133100041C00226B46DA80094E0A4D0A4F02E085
S1133110013C0120B847301C6B46991DA847002884
S113312001D0002CF4D16B46987903B0F0BDC046B1
S1133130E8050020B10C0000510100007047C046B2
S113314008B5024B1878024B984708BD1C060020AE
S1133150A9370000F8B5061C0D1C084C084F201CAC
S1133160311C2A1CB8470028F9D1044D054C281CF1
S11331700121A0470028FAD1F8BDC046C816002096
S1133180DD0D0000FD0D000008B5011C0148024BD7
S1133190984708BDC8160020CD0D000070B590B04A
S11331A08023DB05009300230193FF2269460A81F3
S11331B000228B72CB72012124206C4621540130F1
S11331C0215425316354013163540A930531635406
S11331D00131635405932382E37622762277627663
S11331E01323A3766277E1235B02089380235B03B6
S11331F003931D4B0C931D4B0D9301235B420E93C4
S11332000F931B4E1B4D1C4C301C291C6A46A047B7
S11332100028F9D1164D2C68201C184B98471F2301
S113322018401E3B8340181C154B18602A68D3694C
S1133230002BFCD122680233134323600C4C201C66
S113324010490122104DA847201C10490022A8470C
S11332503122A15C03230B43A3540D480D4B984723
S1133260002010B070BDC0460300280003002900F0
S1133270C816002000100042290900009D08000023
S113328000E100E041310000B50D00003D310000D7
S11332901C0600208931000070B590B0494D2C689F
S11332A0201C494B98471F2318401E3B8340181C81
S11332B08023464AD0502A68D369002BFCD1236866
S11332C00222934323603F4D2C68201C3E4B9847B9
S11332D01F2318401E3B8340181C80233B4AD050B8
S11332E02A68D369002BFCD123680222934323600C
S11332F0344B1A68D369002BFCD10121216080234F
S1133300DB05009300230193FF226846028100221B
S11333108372C37224206C46215401302154253118
S11333206354013163540A93053163540131635486
S113333005932382E3762276227762761323A3769B
S11333406277E1235B02089390235B030393204B92
S11333500C93204B0D93204B0E93204B0F93194E3F
S11333608425ED051E4C301C291C6A46A047002804
S1133370F9D1144D2C68201C134B98471F23184077
S11333801E3B8340181C114B18602A68D369002B1C
S1133390FCD122680233134323600A4C201C1149D8
S11333A00122114DA847201C10490022A8473122B0
S11333B0A15C03230B43A3540D480E4B984710B054
S11333C070BDC046C81600209D08000000E100E062
S11333D003000400030005000300060003000700C7
S11333E02909000041310000B50D00003D31000005
S11333F01C0600208931000008B50248024B98479A
S113340008BDC0461C0600208931000008B5014BE8
S1133410984708BD7D01000008B5014B984708BDD9
S1133420BD01000008B5024B1B68984708BDC046A3
S11334300017002008B50B4800210B4B98470B4A96
S1133440138801339BB21380094A1268934207D34D
S11334500022064B1A80074B1B68002B00D09847AC
S113346008BDC0460C170020591C00001E06002091
S113347004170020FC16002010B58EB000236A4605
S11334801370D3709371D37153709370137253721A
S11334909372D372137393735373137405930693D4
S11334A01377089309931385343300226946CA5469
S11334B0E023DB008B8029230022CA540C4B6A468C
S11334C04B8501235B428B850A4C201C0A490B4B1C
S11334D0984722681369002BFCD1116802330B430F
S11334E01360044806490222064B98470EB010BDEB
S11334F01BB7FFFF0C170020002C004275190000B9
S11335003534000059180000014B18607047C0465C
S1133510FC16002030B58FB0041C3E4B98473E4B40
S11335205B6A002B70D101213B4B59623B4B1C6001
S1133530002200236846027000206C46A280A0711D
S1133540E3716370A37023726372A372E3722373D3
S1133550A373237405920692237708920992228515
S11335606285A28534236A46E05461730823E370BC
S11335702B4C201C2B492C4B98476B4618782B4B13
S11335809847FA2189002A4B98472A4B1860201C37
S11335900021294B984722681369002BFCD111683C
S11335A002330B4313601E4B1A681369002BFCD1C2
S11335B0403353711A4C201C20490022204B984759
S11335C02068204B9847204B1B5C1F2213401E3A57
S11335D0111C99400B1C1D490B60617E01230B4398
S11335E0637623685A726B461878104B98470A4DD5
S11335F028622B1C07CC07C307CC07C322681A60B8
S1133600134B9847281C02E0114B984700200FB039
S113361030BDC0467D0100000C00002000170020D2
S11336202817002000200042751900002916000008
S11336303972000008170020591C000025340000CE
S113364059180000391900002C8E000000E100E038
S1133650BD01000010B5094C094B1B685943C9430F
S1133660201C084B984723681A69002AFCD11A7158
S11336701A69002AFCD120325A7110BD2817002083
S113368008170020591C000008B5074B1A68136975
S1133690002BFCD1403353710348044B984700225C
S11336A0034B5A6208BDC046281700208D1C000039
S11336B00C000020034B1A681369002BFCD1403323
S11336C05371704728170020F0B583B0144B18705D
S11336D0CF23012821D1134B984701AC0026A670B3
S11336E001272770022363702720211C0E4DA84751
S11336F00320211CA8476770A67027700620211C90
S1133700A8474022094B9A6126706770A67007206B
S1133710211CA847064B98470023181C03B0F0BD92
S113372024060020150100003D040000002800408C
S11337309D31000008B5044B1B78012B02D189B2DE
S1133740024B984708BDC0462406002055310000AE
S1133750002809D1012903D10822094B9A610EE0FE
S11337600822074B5A610AE0012808D1012903D134
S1133770044B80229A6102E0024B80225A61704716
S1133780002800408028004008B5044B1B78012B1A
S113379003D1034B1860034B984708BD240600204F
S11337A020060020F933000008B5054B1B78012BD7
S11337B004D1044B1B68002B00D0984708BDC046B9
S11337C0240600202006002008B5014B984708BDB8
S11337D09932000008B5014B984708BD1535000023
S11337E010B5041C034B9847201C034B9847034B0C
S11337F0984710BD0D3400008936000019340000CC
S113380038B5051C0C1C044B9847281C211C034B81
S11338109847034B984738BD0D34000055360000D7
S11338201934000010B5041C034B9847201C034BAB
S11338309847034B984710BD0D340000B53600007F
S11338401934000008B5014B984708BD5101000028
S113385000207047C078002800D0E2207047C0469E
S1133860002070477047C0467047C04610B584B00A
S1133870C823DB0000930E4B019300230293002026
S1133880012100220B4CA047041E06D10A480B4B11
S113389098470B480B4B984706E00748074B984757
S11338A00948084B9847E224201C04B010BDC046C8
S11338B08F02000009450000108800005D750000BB
S11338C0A88E00003D740000C48E000008B5024BB1
S11338D09847002008BDC0466D38000010B584B07C
S11338E01D4B98471D4B98471D4B984701AC201C16
S11338F01C4B9847022201920123237280218902E2
S11339006160E272A3720220211C174B984717488A
S113391002210022164B984702200021154B98479C
S11339201548164B98471648164B98471648174B98
S113393098470020164B9847164B9847164B9847C4
S113394000200021154A164CA04700200221154AE8
S1133950A047154CA047FDE72D18000009300000D2
S1133960793400009D030000B103000069380000B1
S113397025020000510200006538000009350000EE
S1133980108800005D750000E48E00003D740000A6
S1133990FD2700004D2F00006D380000348E00001C
S11339A02D270000808E0000192F000070B50C4DEB
S11339B02C68002C13D02668E2602E600025094A8A
S11339C0238113682560A080E180AB4201D114609B
S11339D005E01A68002A01D0131CFAE71C6070BDC8
S11339E0D0060020C80600200A4B0022191C10B57E
S11339F01868094B9C18D0501032201CA02AF8D10A
S1133A0090330B60054BA13A5A801A8000229A60C9
S1133A10DA6010BDD00600202806002044170020DC
S1133A2038B5204C051C081C2188231CA9420ED142
S1133A30A18881420BD101235B422380A2601A4BEF
S1133A40628801219A422BD1184B98471CE059886F
S1133A50A9420CD19988814209D101214942598056
S1133A609968002901D19A60EEE7DA60ECE7104B1F
S1133A709D420FD00F4B9D4208D00F4B00219D4219
S1133A800ED1101C0D4B9847012109E0111C0C4B61
S1133A90002202E0111C00220A4B98474142414196
S1133AA0081C38BD44170020FFFF00001950000017
S1133AB0130E0000150E0000010E00005D5B0000F7
S1133AC02D5D0000055E00000023F0B50D1C85B0DF
S1133AD0029003920370B84B039898470023019314
S1133AE0B64C2368002B04D1B54B98470190D028DD
S1133AF0F6D1B44B9847019BD02B00D18BE22368BD
S1133B001A68D9682260DA880092AF4A9C881068E3
S1133B1013601860019B002B00D07CE2AB4B9C42ED
S1133B2008D1009BA34200D065E23823029A1370A7
S1133B30296070E2009BBB2B25D1BB2C23D16B46A3
S1133B409B88AB808B784A781B02CC780879134326
S1133B504A799F49AC702B808B4206D89D4A934288
S1133B600BD29D4A934208D009E09C498B4206D16E
S1133B7013020343AB80372302E0362300E0002323
S1133B80029A137047E2964B9C4200D1A2E100D9FD
S1133B9083E0944B9C4200D1FDE13CD8924B9C4283
S1133BA000D1FCE116D8914B9C4200D1D5E104D858
S1133BB03826B44200D12CE21DE28D4B9C4200D148
S1133BC0D1E1FE33FF339C4200D014E200982A1C5A
S1133BD0884B94E1884B9C4200D1D0E10DD8874BAF
S1133BE09C4200D1C5E1864B9C4200D003E2009880
S1133BF02A1C844B984714260BE2834B9C4200D129
S1133C00C3E1824B9C4200D0F5E100982A1C804B12
S1133C1098471826FDE17F4B9C4200D1CCE11ED889
S1133C207D4B9C4200D1CEE10DD87C4B9C4200D010
S1133C30E1E100982A1C7A4B9847A988061C794B25
S1133C4028889847E5E1784B9C4200D1ADE1774B59
S1133C509C4200D0CFE100982A1C754B4FE1754B74
S1133C609C4200D12AE109D8083B9C4200D19EE045
S1133C70714B39269C4200D1CBE1BCE1D1231B011D
S1133C809C4200D120E16D4B9C4200D0B3E1081C62
S1133C906B4B291C98470F26BBE16A4B9C4200D111
S1133CA035E13DD8684B9C4200D152E119D8674BAD
S1133CB09C4200D11AE107D8033B9C4200D09AE110
S1133CC000982A1C624B1AE1624B9C4200D107E126
S1133CD0614B9C4200D08EE100982A1C5F4B9847B0
S1133CE06FE15F4B9C4200D106E10BD85D4B9C42D7
S1133CF000D12AE15C4B9C4200D07CE100982A1C54
S1133D005A4BFCE05A4B9C4200D1FAE0594B9C427E
S1133D1000D070E100982A1C574B98470E2678E192
S1133D20564B9C4200D104E120D8554B9C4200D113
S1133D3005E10DD8534B9C4200D1EEE0524B9C421E
S1133D4000D058E100982A1C504B9847122660E195
S1133D504F4B9C4200D1E6E04E4B9C4200D04AE1DE
S1133D60081C4D4B291C98472A2652E14B4B9C4278
S1133D7000D134E10DD84A4B9C4200D129E1494B92
S1133D809C4200D037E100982A1C474B98473026C4
S1133D903FE1464B9C4200D127E1454B9C4200D079
S1133DA029E100982A1C434B9847322631E1081C2C
S1133DB0414B291C91E0C046A94F0000C8060020D1
S1133DC025500000CD4F0000D0060020FFFF00006A
S1133DD01E2000001D200000030C00001F20000016
S1133DE01C0D00000C0C0000020C0000020A000074
S1133DF0030A0000AD6D0000060C0000040C000076
S1133E00050C0000996C0000070C0000090C000070
S1133E108D6E0000170C0000120C00000D0C000049
S1133E20596D0000156C0000130C0000150C000007
S1133E3019490000080D0000010D0000150D0000D7
S1133E40796A00001B0E00000F0E0000030E000034
S1133E5031590000060E00000A0E00000D62000039
S1133E60150E0000110E0000130E0000055E000088
S1133E70170E0000190E000051610000270E00000B
S1133E80210E00001C0E00001D0E00002D6300001A
S1133E90220E0000250E0000B3630000051B000085
S1133EA0011B0000031B0000FB6F0000061B000049
S1133EB0081B000013700000E1660000081C5B4B47
S1133EC0291C98470426A4E0081C594B291C984730
S1133ED001269EE0081C291C564B9847061C98E0B6
S1133EE000982A1C544B9847112692E0081C534B07
S1133EF0291C984706268CE02A1C0098504B9847AA
S1133F00ECE700982A1C4F4B98470D2681E0009857
S1133F102A1C4D4B98470B267BE000982A1C4B4BE0
S1133F209847102675E0081C494B291C98472826F9
S1133F306FE0081C474B291C9847292669E0081C98
S1133F40454B291C9847272663E000982A1C434BBD
S1133F50D5E700982A1C424BD1E7081C414B291C89
S1133F6098472B2655E0081C3F4B291C98472C26C4
S1133F704FE000982A1C3D4B9847132649E00098CF
S1133F802A1C3B4B9847152643E000982A1C394BC2
S1133F90984716263DE000982A1C374BAFE7009857
S1133FA02A1C364B9847232633E0009B081C1F0A23
S1133FB02F80291C324B90E7081C009A291C314B96
S1133FC098473A2625E000982A1C2F4B984720262C
S1133FD01FE000982A1C2D4B9847332619E00098BF
S1133FE02A1C2B4B9847342613E000982A1C294B93
S1133FF0984735260DE0C522274E28495200284B04
S113400037682848B847336827480099221C9847DE
S11340100026029B1E70029B1B783A2B03D1019B46
S1134020002B00D157E5019805B0F0BDC56600002E
S1134030816900009D6A0000B1620000855C000097
S11340402D5D0000AD600000656200007B62000031
S1134050456300007363000089630000B1610000E0
S1134060DB610000B1500000DD5000005D6C000019
S1134070E16C0000256D0000596D00007D6E0000AC
S1134080AD480000DD480000CD6E0000F16F000077
S1134090017000000770000038000020328F00001B
S11340A0048F0000158F0000598F0000F7B50E49EA
S11340B000240B680F1C1E1C0C4A15680192002B6F
S11340C00ED09A881968824207D1002C01D0216051
S11340D000E00E1C1D601D1C231C1C1C0B1CEEE7A9
S11340E0019B3E601D60F7BDC8060020D00600207D
S11340F0F7B5124A0090136811481F1C002184462A
S113410004680192002B14D0D888009A1D68060A0E
S113411096420BD1FD2606400C2E07D1002901D072
S11341200D6000E02F1C1C601C1C0B1C191C2B1C9C
S1134130E8E7019B1F6063461C60F7BDC8060020CA
S1134140D006002038B5002802D04B1E1F2B0BD9F7
S11341500D4C0E49F7220E4B0E482568A8472368DC
S11341600D489847CF200DE00C4A131CAA33198040
S113417000231C1CC55CAC3401331555DCB28C42E5
S1134180F7D3002038BDC04638000020CC8F000093
S11341901D920000158F00001B900000E417002002
S11341A010B5041CCF20002C06D0044BCE38211CA3
S11341B09847034B1B79237010BDC04689650000E6
S11341C0E4170020F0B5067989B0041C032E0CD93D
S11341D0A722334D33495200334B2E683348B0473E
S11341E021792B683248984720E003780F2B0DD9AA
S11341F054222B4D2B49FF322B4B2E682B48B047B2
S11342002B6821782B489847E02546E08023878C4B
S11342109B009F420CD95A22214C234B234821490D
S1134220FF322568A847236823489847CF2534E000
S1134230C57F837FAD015B011D43C37E1D43437F67
S11342401B011D43037F9B001D431C4BEDB21E71DC
S11342500079032809D802F0E5FF020406060023CA
S113426002E0012300E002232371231C0B33618845
S113427007932379207800930195258C621D02957C
S1134280658C079B039504970D4DA8472671051C63
S1134290211C0A4826220B4B9847281C09B0F0BD64
S11342A038000020CC8F00008E8F0000158F000096
S11342B02E9000004C90000069900000E41700204C
S11342C0656400001B7400007FB5041C46490B2282
S11342D0464B01A89847201C454B9847051C041ED3
S11342E009D0444C444B454845492D222668B047E3
S11342F02368444872E0444B9847231C051E09D0A8
S11343003C4C3D4B3D483E4933222668B047236828
S11343103E4863E001213E4A49429A1812335181D2
S1134320902BF7D13B4C813B23703B4B3B4A638042
S1134330002323710133581E190101430233117004
S11343400132212BF7D180229200A284221C002367
S113435073321370221C72321370221C7632137063
S1134360221CCC321380211CA022D03152000A809E
S1134370211CCE310A80221CD2321380FA21221C45
S11343804900D4321180221CD632E3762377637736
S1134390A377E377238463841370201C204B98470E
S11343A0051E09D0134C144B144815495D22266888
S11343B0B04723681B4811E007237434237001A815
S11343C00B21194B9847051E0AD00A4C0A4B0B487F
S11343D00B4966222668B04723681448291C98476D
S11343E0281C04B070BDC046838F00001B740000FD
S11343F0554E00003800002034920000158F000054
S1134400CC8F000093900000D5630000AF900000B3
S113441054170020E4170020983A0000EF170020FA
S1134420C5410000C890000045410000EB90000029
S113443038B5451C031CCF20002D18D01A78032A48
S113444015D8012A02D15A78002A10D01C1C291C24
S11344500622074B07489847237807480371074B00
S113446098472378002B02D1281C054B984738BD68
S11344701B740000E9170020E4170020C541000068
S113448089570000F8B584460F1C161C1C1C002814
S113449002D1E220002A2BD0CF201F2F28D81F2C96
S11344A026D86346002B0ED01248134D002F04D19A
S11344B0391C1F22114B984703E061463A1C104BEC
S11344C0984772352F70301E12D00B4D0D48002CBA
S11344D007D1211C1F22094B733598472C70201CCF
S11344E006E0311C221C064B9847002073352C70C3
S11344F0F8BDC04618180020E41700202D740000F1
S11345001B74000037180020F0B591B01F1C16ABC7
S11345101D8817AB1B880D910E9318AB1B78041CD8
S11345200F93424B161C73331B78CF200C93012C32
S113453003D10E9B002B76D124E0042C73D8802366
S1134540DB019D426FD8002C02D11F2D6BD903E0F3
S11345509F2D01D8012C66D1002F09D00D9BCF20AF
S1134560013B012B5FD9012C02D1002D00D1203554
S11345702F4B9847011C002E43D03378601E002B2C
S113458009D13BE08023DB019D424CD8002E4AD068
S1134590002FE3D12BE0012303283AD90D20721C0C
S11345A002E00E20321EFAD1204C743426780724FF
S11345B0002E00D0341C00920D9A039404921B4ADE
S11345C0019502950597723212780E9C0692194A4B
S11345D007920C9A0892184A09926422624392B292
S11345E00A920F9A154C0B92154AA0471BE0002D16
S11345F0BED10F4B98472025011CBEE70328CDD818
S113460006E0601E032803D9331C0D20321CCBE7BF
S1134610002302F0FDFDC60604020F20C2E70022BB
S11346200C920C20BEE711B0F0BDC046E417002088
S11346306969000018180020371800205568000028
S1134640983A000010B5054B9847041E03D1D120B9
S1134650034B00019847201C10BDC0466166000052
S1134660AD40000038B5041C044B081C211C9847BD
S1134670051C034B201C9847281C38BD3D5C0000DA
S1134680F140000070B5094CA047041E0BD0D022A5
S1134690074D0849084B094892002E68B0472B681B
S11346A00748211C9847201C70BDC046616100006A
S11346B038000020CC8F0000A48F0000158F00006C
S11346C00A90000010B5CF2300280AD0002908D092
S11346D0002A06D00C78022C03D1034B01319847F1
S11346E00023181C10BDC046096A0000831EDBB2FB
S11346F003200E2B01D8014AD05C7047BD8F000007
S113470070B5051C00240C4B19680C4B1E688C42B8
S113471010DC0C206318DA0FD318021C5B105A4308
S1134720B0180288AA4201D2591EF0E7AA4202D95F
S11347305C1CECE7002070BDE4060020DC060020D1
S113474037B5094B051C081C0C1C9847002809D0D8
S11347508268002A06D08388291C0092201C00222B
S1134760024CA0473EBDC046014700000D6B00004F
S1134770084B094A18604B081360084AC3181360B1
S1134780074A41181360032303319943054B043945
S113479019607047E8060020D4060020D8060020DF
S11347A0E0060020DC06002070B50B4B061C0C1C38
S11347B0151C9847002808D08068002805D0211CC3
S11347C02A1C064B9847002004E0301C291C221C9C
S11347D0034B984770BDC046014700001B7400009E
S11347E0DD6E000070B50C4B061C0C1C151C9847A4
S11347F000280BD08368002B08D083882B80828804
S11348008168064B201C9847002004E0301C291CBA
S1134810221C034B984770BD014700001B74000025
S1134820656F0000F0B585B0041C0191002929D101
S11348304788184B381C261C98470836002809D08E
S11348408068002806D0A388E288C018311C124B67
S1134850984717E002AB9D1D00232B800F4B2A1CA9
S11348601B68381C191C00930D4B9847009BA088AB
S1134870E2881818311C084B984760882A880099E8
S1134880084B984760882188019A074B9847002075
S113489005B0F0BD014700001B7400004892000001
S11348A0E5470000A9470000816B000038B50C1CE7
S11348B0074B98476588074B281C98478378262020
S11348C0DB0704D42088291C034B98473A2038BDC1
S11348D0BD6A0000014700004147000038B50D1CC7
S11348E00A4B141C98472D88094B281C9847220A08
S11348F0031C084C91B2002803D082880023281C92
S113490001E0281C0122A0473A2038BD016B0000B9
S113491001470000C96B000010B5141C074B9847F1
S1134920074B60889847022381782220194003D1DD
S1134930201C044B98471F2010BDC046C96A0000C4
S113494001470000254800000122014B1A707047FE
S1134950FA060020002210B50C23534307495C5883
S1134960002C06D101225A50CB1898605C60181CA8
S113497003E00132042AEFD1002010BDFC06002020
S1134980F7B5174F174E3B6830689B68012198476D
S11349900023154D2B70154B1C1D34330193231F1D
S11349A01B68012B0FD12368002B0CD0013B236023
S11349B0002B03D16368002B00D098472368002B99
S11349C001D001232B70019B0C349C42E7D12B783E
S11349D0002B03D13B683068DB689847F7BDC046BD
S11349E058070020680900205E090020FC0600200A
S11349F008B5054B054A1B6810689B680121984758
S1134A000122034B1A7008BD5807002068090020D2
S1134A105E09002008B500230C4A436013700C495A
S1134A205858012805D1C9184968002901D01070C7
S1134A3002E00C33302BF2D11378002B05D1054B57
S1134A40054A1B681068DB68984708BD5E090020AA
S1134A50FC0600205807002068090020F8B5114E14
S1134A60071C3378104C002B0ED101200F4D011C74
S1134A702B685B699847012333709F4207D12B68E9
S1134A8005201B69984702E02068094B98470522D6
S1134A9023685A60074B1B78002B01D1064B9847BB
S1134AA0F8BDC046480700206009002058070020D0
S1134AB0154A00005E090020F149000038B5114B89
S1134AC0041C02209847104B1A78022A0DD10F4D6E
S1134AD00F4B281C211C9847281C0E4B9847002874
S1134AE009D001220C4B1A700AE0002A08D15A2C72
S1134AF001D101321A70094B09481B68DB699847D8
S1134B0038BDC0465D4A0000EC0D0020340700208B
S1134B10E9710000B37100006C09002058070020FF
S1134B20BD4A000010B50E4B1B78012B0DD10D4C66
S1134B300D4B20689847052223685A600B4B1B785D
S1134B40002B0BD10A4B984708E00A4B01201B6845
S1134B5000215B6998470022074B1A7010BDC046BC
S1134B605007002060090020154A00005E0900205B
S1134B70F149000058070020480700200023F0B541
S1134B8087B000930193914C914B201C9847071ECA
S1134B9000D018E18F4D2E68012E24D0002E03D0B2
S1134BA0022E00D1AFE0EEE704ABDF1D201C8A4BE0
S1134BB0391C9847894B1A78012A05D11E70884BF5
S1134BC088481B68DB6998473B78052B01D1043B77
S1134BD002E0042B01D1023B2B600122824B1A60BC
S1134BE00022824BBEE0804E3368012B02D0022BA0
S1134BF03AD0C8E704ABD91D201C774B9847774BB4
S1134C001A78012A05D11F70754B76481B68DB6939
S1134C109847764B04A81988C0794A1C92B21A8026
S1134C20734B5854082AAED1DF79197858781A7919
S1134C305C799B793F023B43009313D10602240223
S1134C400E431443301C1A1C211C6A4B984700283D
S1134C5005D1009A211C301C131C674CA04700236B
S1134C602B60AEE0022370E0614B201C1A785D7863
S1134C70161C1A7902925A790392DA799B791202F4
S1134C801343009304ABD91D534B9847534B1A78E5
S1134C90012A05D11F70524B52481B68DB699847A3
S1134CA0564904AA07320B881278554F581CFA54F7
S1134CB0544A009C128880B20880801AA04200D016
S1134CC061E703982D02040202983543044300204F
S1134CD0844666463F4804330660032083430B80C2
S1134CE0BA18444B281C211C984701230193B04255
S1134CF000D048E7434B211C1A88281CBA18009B93
S1134D003D4CA0473FE7384E3368012B02D0022BBD
S1134D102AD038E704ABDD1D201C2F4B291C9847F3
S1134D202E4B1A78012A05D11F702D4B2D481B6874
S1134D30DB6998472D4928780A88531C9BB20B805D
S1134D402B498854022B00D01DE7802233602B4B63
S1134D50D2001988521A00998A4201D200221A807C
S1134D601A88284B1A800EE7214B201C5E7804AB6E
S1134D70D91D194B9847194B1A78012A05D11F7070
S1134D80174B18481B68DB6998471C4904AA07326B
S1134D900B8812781A485C1CC2541A4AA4B21288AE
S1134DA00C80A41AB44200D0EDE600248218BB2083
S1134DB02C6004330334A3430B800F4CB3B2011CA7
S1134DC0A0470123DEE6019807B0F0BD34070020B8
S1134DD0A571000030070020C57100006C09002097
S1134DE058070020BD4A0000EC0600205C070020A4
S1134DF0F2060020213A0000AD3900002C07002003
S1134E006D090020F0060020F8B50D4B071C0120A9
S1134E100E1C984701230B4C0B4D23700B4B1B7836
S1134E20022B04D12B680A489B69032198472B68FD
S1134E30381C311C9B69984700202070F8BDC0467F
S1134E405D4A000050070020580700205107002049
S1134E50449200007FB5031C2C331A783F4B041C8A
S1134E601A7080223E483F4992003F4B98470028E1
S1134E7001D140256FE03D4B206861689847231CB1
S1134E803B4D08332B60A368002BF2D02369002B21
S1134E90EFD06369002BECD0A369002BE9D0E36960
S1134EA0002BE6D0226A002AE3D0626A002AE0D00E
S1134EB0A26A002A04D10222A18DFF329142D8D0E5
S1134EC00120011C984700202B68011C5B6998474E
S1134ED02B6832201B6998472B6801215B690020ED
S1134EE098472B6823481B6998472B682248DB693D
S1134EF098472B6821481B689847214B1860002865
S1134F0001D1E22527E01F4E1F4D301CA8471F4B3F
S1134F1018600028F5D0301CA8471D4B18600028E5
S1134F20EFD01C48A8471C4B18600028E9D01B4B45
S1134F309847201C1A4B9847051E0CD16B4601223A
S1134F40DC1D201C02A95242164B9847002802D1AE
S1134F502378392BF2D1281C04B070BD51070020EE
S1134F60340700205E0700208571000071470000AF
S1134F7058070020B80B0000BD4A0000814900001A
S1134F806809002049490000554900004C070020E9
S1134F9054070020254B000060090020E939000077
S1134FA051700000C93A000008B5054B1B685860F1
S1134FB0044B1B78002B01D1034B984708BDC04616
S1134FC04C0700205E090020F149000008B5024B9F
S1134FD01868024B984708BD4C070020154A00008A
S1134FE008B5054B1B685860044B1B78002B01D196
S1134FF0034B984708BDC046540700205E090020B3
S1135000F149000008B5024B1868024B984708BDE7
S113501054070020154A00000122014B1A70704702
S11350206409002008B50E4B98470E4B002807D1A1
S11350300D4A1278012A05D01A78012AF3D101E029
S1135040012802D01A78012A02D10020187005E044
S1135050054B00201B78012B00D1D03008BDC04681
S11350607D4B0000CC060020FA06002038B5FA205B
S113507000240A4B00011C70094B9847094B1A780D
S11350801D1C012A04D0084B9847041ED02CF5D1CE
S1135090064B98470023201C2B7038BDFA060020CD
S11350A0E14F000064090020255000000550000075
S11350B010B502780A70837844781B0223434B802E
S11350C00379C0781B0203438B80002A03D1024A70
S11350D013780133137010BD3400002008B5031C8D
S11350E042780078120202430A80DA789878120231
S11350F002434A805A791879120202438A80881D31
S1135100991D014B984708BD1B740000F7B5071C97
S11351100E1C151E0193052D2ED80124221C3323A9
S1135120AA401A4228D00B78073B092B0AD9194CFC
S113513019491A4B1A48F1222568A847317823687F
S1135140184823E0019B002B01D1002020E0164BDE
S1135150381C00219847019B18700728F5D90D4D7C
S11351600D49FA220D4B0E482E68B0472B680F48A4
S1135170391C9847201C0BE0064C0749074B08488C
S1135180EC222668B047291C236809489847CF2099
S1135190FEBDC04638000020A0920000D29300005B
S11351A0158F0000CA920000CD580000E092000064
S11351B006920000F0B50C1C1F218BB0079302ABC4
S11351C0C9180F230B706B4B051C161C9847071E40
S11351D0072F0BD9684C69491A22694B694825681D
S11351E0A8472368684898470120C0E0002C1BD1D9
S11351F012235F43654BFB5C012B0BD10495009498
S1135200019402940394201C211C221C231C604D35
S1135210A8477BE0584C5A4B5A48584929222568DC
S1135220A84723685B48A0E02279062A04D9637959
S1135230102B01D89A4209D94F4C514B51484F4930
S113524032222568A847236853488EE0237A042B2A
S113525009D9494C4A4B4B48484939222568A84743
S113526023684E4881E0A379072B02D8E379072B02
S113527009D9414C424B4348404941222568A8473B
S11352802368474871E0A378002B10D0002E09D181
S1135290394C3B4B3B48394949222568A847236888
S11352A0404862E04048311C1C22404B9847079B11
S11352B0002B05D03E48191C9A3010223B4B9847CE
S11352C06378A2789B001343122257432F4ADBB220
S11352D0BA5C002A1CD1A079420702D5079A002A99
S11352E003D0C20706D5002E04D1234C25482349F8
S11352F060221DE066792178E27800960190E079D9
S11353000290207A2B4C0390281CA04700202EE00A
S1135310012A21D1E079420702D5079A002A03D055
S1135320C2070BD5002E09D16E22134C1548134920
S1135330134B2568A84723681F4816E0667921782F
S1135340E2780096A67902900196207A049503905B
S11353500F4C0120A047D9E7074C094B09480749DE
S113536079222568A847236814489847CF200BB0B2
S1135370F0BDC046CD58000038000020A0920000C7
S1135380FC930000158F0000F192000054170020D8
S1135390ED5E000007930000199300002C930000B9
S11353A04393000057930000621800201B74000010
S11353B0E4170020BD5C00006D93000081930000A1
S11353C0F0B585B0051C0C1C161C00216846102283
S11353D01E4B98470121002E01D1311C6E46002C32
S11353E016D10127231C701D013E02780138303A82
S11353F07A439B180A225743B042F6D16A4668465C
S113540013701A0A42701A0C1B0E8270C37015E0D6
S1135410012C07D100236846F25CC2540133102BDF
S1135420F9D10BE00A4C0B49AC220B4B0B48256815
S1135430A84723680A489847CF2005E004206A4615
S11354402B1C084CA047002005B0F0BD2D740000B3
S113545038000020A09200006C920000158F00001C
S113546094930000715F000070B5174B0E1C00216F
S1135470051C141C984707280BD9144C1449C32243
S1135480144B15482568A8472368144898470120F9
S113549018E012235843124BC35C012B0BD00B4C66
S11354A00B49C9220B4B0C482568A84723680D48B3
S11354B09847E02006E0B1000C43281CE1B20A4BF7
S11354C09847002070BDC046CD5800003800002029
S11354D0A092000082920000158F0000A3930000A8
S11354E054170020B3930000C95F0000F0B50F26E5
S11354F087B002ABF6180823071C0C1E0392337006
S11355002FD0204D1A31331CA847051E2AD1122250
S1135510337853431C4A9B5C002B11D016221B4C3E
S11355201B49FF321B4B25681B48A84712223378BE
S11355301A485343144AE025995C2368984711E0BC
S1135540211C1C22164B17489847231CA17E228A33
S11355500091039912330191381C211C124CA0476D
S11355600CE0CF258F22094C09490A4B0A48520006
S11355702668B04723680D48291C9847281C07B0A3
S1135580F0BDC0460D510000541700203800002023
S1135590A0920000E4930000158F0000C293000065
S11355A01B74000062180020116000000A900000C3
S11355B0F0B585B0061C0391171C1D1E14D0002ADB
S11355C009D1AB7E104C0093301C03993A1C2B1C60
S11355D0A047002415E0191C0C4C1A31039A00232F
S11355E0A047041EEDD000E0CF243822084D09491D
S11355F0094B0A48FF322E68B0472B680848211C23
S11356009847201C05B0F0BDCD6000000D5100008E
S113561038000020A09200004C920000158F00007A
S11356200A90000038B5051C274C28482849A04793
S113563028482949A04729482949A04729482A49EF
S1135640A0472A482A49A0472A482B49A0472B4863
S11356502B49A0472B482C49A0472C482C49A0474C
S11356602C482D49A0472D482D49A0472D482E49A7
S1135670A0472E482E49A0472E482F49A0472F481F
S11356802F49A0472F483049A04730483049A04708
S113569030483149A04731483149A047314932485F
S11356A0A0476978012901D13048A0473048012139
S11356B0A04730480121A0472F480421A0470221D8
S11356C02E48FF31A04738BD1D700000C0010410F2
S11356D0E36A00100C000410A5530010100004101D
S11356E09D5400104C000410155500103400041093
S11356F04756001068000410555900108800041023
S11357005D5A0010BC0004107D5B0010DC00041026
S11357109D5C0010E40004106D5E0010E8000410AD
S1135720DF600010EC000410996100100C010410FB
S11357304D6300105401041045650010600104100D
S1135740F5650010740104108D6700101002041038
S11357507175001038000410FF5700100400001089
S113576081580010DB5700103C000010A07C001092
S113577068010410D07B0010D47B001000000410DA
S11357800FB4002004B07047144AF8B5146800231D
S11357900522011C03260F27201C114D0930AB6084
S11357A0EB6022700B3223716271A371E371237277
S11357B00A3A0C4B6770A670E67098470A4B201C97
S11357C02B800623391CE371084BAE809847084BA5
S11357D09847D02801D0AB681878F8BD40920000F3
S11357E0441700201B74000029030000094E000028
S11357F06D500000002238B52E4B0E259A60DA60F9
S11358002D4B1C680523217110212370A5700633CC
S113581029356370E5706171A271E2712272607260
S1135820A272012832D090421FD0022837D1234BD4
S11358301A1CCE321188E1721288120A22731A1CC1
S1135840D032118861731288120AA2731A1CD232E0
S11358501188D433E17312881321120A22741A882E
S113586062741B881B0AA3741AE0201C134D14498C
S1135870AA352B880D30E3722B881B0A23732A88E0
S1135880104B984729880D3189B209E00B4B0D2143
S1135890CC331A88E2721B881B0A237300E0191C9C
S11358A00B1C093BE3711B122372201C064B984707
S11358B038BDC0464417002040920000E417002081
S11358C0901800201B740000094E00000C4B70B5AA
S11358D0041C08209C4211D0002312225A43094D73
S11358E0D8B256197689A64204D1002906D0535D50
S11358F00B7003E00133082BEFD1181C70BDC046B8
S1135900FFFF000054170020002312225A430649C7
S1135910D8B252185189054A914203D00133082B59
S1135920F3D1181C7047C04654170020FFFF000035
S1135930F0B5141C0A7885B0031C501E01924D78F2
S11359400F2800D985E001F06DFC0858848458586C
S1135950846C2E13269184843A483A20002D00D179
S113596085E01B0A23800023A570E37034387EE0B1
S113597002AAD61D01221F0A381C311C3D4B32706D
S11359809847072803D833783A20002B6FD06780D4
S1135990257109206BE03A20002D68D01B0A238072
S11359A0A5702C3863E03A20002D60D01B0A2380B8
S11359B00023A570A380E3802381333857E03A2085
S11359C0002D54D025722C4C2C4B2D482D498F2260
S11359D02568A84723682C480CE03A20002D46D0BF
S11359E02571254C254B264826499F222568A84722
S11359F0236826489847292039E03A20002D36D0DC
S1135A001D4F2049B5221D4B1D483E68B0473B68D9
S1135A101F48291C98476B461B79E570A370112019
S1135A2025E03A20002D22D01B0A63802570201D1A
S1135A3000210522174B98470F4C1249C7220F4BE0
S1135A400F482668B04723681348291C984712203A
S1135A500DE0094C0B49D122084B09482568A84799
S1135A6023680E4801999847002000E03A2005B0C9
S1135A70F0BDC046CD58000038000020109400004E
S1135A80158F00003B940000769400009894000069
S1135A90BA9400002D740000E19400000A950000FF
S1135AA0F0B5002585B01E1C0AAB1B780192029349
S1135AB00BAB1B78071C03930CAB1A88234B009188
S1135AC09D60DD60224B391C1C680523201C23705B
S1135AD0033B63700C33A370E37002332271637170
S1135AE01C4FA571E571257210220930B8476B4629
S1135AF0201C1B7801996376009B10221B0AA37655
S1135B00009B1D301B0CE376009B1B0E2377B847CC
S1135B10231C320A2D335A70320C9A70221C1E70C8
S1135B203032330E13706A46231C127A31331A70E2
S1135B306A46127B5D709A70DD702C23201CE37121
S1135B403521054B9847281C05B0F0BD44170020AB
S1135B50409200001B740000094E0000F0B5457827
S1135B600378304C2D021D43A585C37882788BB011
S1135B701B021A436B4605929B8A2021E3854379D5
S1135B8002791B021A436B4606921B8B061C238662
S1135B90C37982791B021A436B4607926A469B8B30
S1135BA052186386437A011C0893231C12787733B6
S1135BB078341A700A3106221B4B201C9847337C18
S1135BC009931A4B98471A4E071E072F1BD8122306
S1135BD04343F0184581694624254919097806226A
S1135BE0F15420216B465B181B78211C43706B46D3
S1135BF09B8A023043816B461B8B83816B469B8B54
S1135C00C381094B9847122100234F43009301930A
S1135C10F6197189074A0291101C191C064CA047F9
S1135C200BB0F0BDE41700201B74000009590000FC
S1135C3054170020C40D0020A15A000010B5002400
S1135C4005220D4B9C60DC600C4B1B681A70013AFA
S1135C505A700A329A70DA7002325A710F3A5A72D2
S1135C60013219719C711C729872DA71181C0B2123
S1135C70034B9847201C10BD44170020409200009D
S1135C80094E000010B5041C437800781B02184329
S1135C900880A3780A1CCB700021064B91709847AA
S1135CA0072806D812235843034B181801235B42D4
S1135CB0438110BDCD58000054170020F7B50024CF
S1135CC0844608A8077809A806780AA80078052554
S1135CD000900BA80078019011488460C4601148BA
